:0763230044053000000000FA
:1028270043BA8078FBE6FFAD9FC3ED9FFFE49400BA
:10283700FE3395E0FDFCE47BF07AD2F9F812150738
:10284700E42FFFEE3436FEED346EFDEC3401FC90E0
:10285700044512168C900445E0FCA3E0FDA3E0FEBE
:10286700A3E0FFC00790FE01E0FBE4FAF9F8D00708
:1028770012159290044512168C7FC07EF67D577C08
:1028870000900445E0F8A3E0F9A3E0FAA3E0FBC356
:1028970012164850097F007E607D547C00227FC05D
:1028A7007E267D827C00900445E0F8A3E0F9A3E052
:1028B700FAA3E0FBC312164850097F807E8D7D5B2B
:1028C7007C00227F807EED7DAF7C00900445E0F8A0
:1028D700A3E0F9A3E0FAA3E0FBC312164850097F6F
:1028E700007EC07DA87C00227F807E2D7DE87C0055
:1028F700900445E0F8A3E0F9A3E0FAA3E0FBC312D4
:10290700164850097F007E1B7DB77C00227F807EA2
:10291700367D257C01900445E0F8A3E0F9A3E0FAB1
:10292700A3E0FBC312164850097F007E407D197C47
:1029370001227F807E567D417C01900445E0F8A30B
:10294700E0F9A3E0FAA3E0FBC312164850097F00A1
:102957007E2D7D317C01227F007EDB7D5F7C0190B7
:102967000445E0F8A3E0F9A3E0FAA3E0FBC31216DD
:102977004850097F007E807D517C01227F607E194F
:102987007D857C01900445E0F8A3E0F9A3E0FAA374
:10299700E0FBC312164850097F007E367D6E7C012E
:1029A700227F207EE07DB27C01900445E0F8A3E021
:1029B700F9A3E0FAA3E0FBC312164850097FC07ED3
:1029C700FC7D9B7C01227FE07EA67DE07C0190045C
:1029D70045E0F8A3E0F9A3E0FAA3E0FBC312164829
:1029E70050097F807EC37DC97C01227F607E2B7D5D
:1029F700FF7C01900445E0F8A3E0F9A3E0FAA3E027
:102A0700FBC312164850097F007E407DFA7C0122E5
:082A17007FC07E0E7D167C02DB
:012A1F002294
:10543F0012282790053012168CE4F594F593F59207
:10544F00F591F596F595F5B2F5B1F5B4F5B3F5CA55
:10545F00F5C9F5CCF5CBF5E2F5E1F5D8F5D9F5DEE3
:10546F00F58EF598F59AF5ACF584F5A2F5BAF5AF8A
:10547F00F589F5E9F5F9126179900448121698004B
:10548F0001C20090044C7402F07B01E4FDFF022A7C
:01549F0020EC
:10666C0090055CEFF0FDE4FF12594E90055CE0FFE5
:01667C0022FB
:03005600C2AF2214
:03008600D2AF22D4
:103C520090047DEFF014603914605F147003023C2D
:103C6200E524036003023D0FE4FD7F131222D9E431
:103C7200FD7F141222D9E4FD7F151222D97D017F26
:103C820013125561E4FD7F141255617D017F158089
:103C920079E4FD7F231222D9E4FD7F241222D9E4A4
:103CA200FD7F251222D97D017F23125561E4FD7F1C
:103CB200241255617D017F258050E4FD7F77122219
:103CC200D9E4FD7F761222D9E4FD7F751222D97DD7
:103CD200017F77125561E4FD7F761255617D017F88
:103CE200758027E4FD7F341222D9E4FD7F3312224E
:103CF200D9E4FD7F321222D97D017F34125561E46D
:103D0200FD7F331255617D017F3212556153A2F35B
:103D120090047DE014600A14600C14600E24038089
:103D22000D43A204800843A208800343A20C53CE91
:103D3200F3900481E024FE600C14600E2402700DE6
:103D420043CE04800843CE08800343CE0C90048304
:103D5200E042CE900482E0700643CE8043CE104310
:033D6200CE40222E
:0D0006008FCFE5CD30E7FB75CDC0AFCF2229
:10420400900534EFF014603914605F1470030242B7
:1042140097240360030242C1E4FD7F131222D9E410
:10422400FD7F141222D9E4FD7F151222D97D017F6E
:1042340013125561E4FD7F141255617D017F1580D1
:1042440079E4FD7F231222D9E4FD7F241222D9E4EC
:10425400FD7F251222D97D017F23125561E4FD7F64
:10426400241255617D017F258050E4FD7F77122261
:10427400D9E4FD7F761222D9E4FD7F751222D97D1F
:10428400017F77125561E4FD7F761255617D017FD0
:10429400758027E4FD7F341222D9E4FD7F33122296
:1042A400D9E4FD7F321222D97D017F34125561E4B5
:1042B400FD7F331255617D017F3212556153A2F3A4
:1042C400900534E014600914600A14600B2403227E
:0C42D40043A2042243A2082243A20C22B1
:1064FF0053CEF7EF24FE600B14600C2402700B4395
:0B650F00CE042243CE082243CE0C2213
:10662200EF1FAA0670011E4A60087D091DED60F089
:0266320080FAEC
:016634002243
:105F9E00E490054EF0A3F0FC90FE82E020E61E7F1A
:105FAE00017E0012662290054EE475F0011214B9BE
:105FBE00FEC3E5F0941EEE940040DD7C0190FE825F
:065FCE00E054BFF0AF0437
:015FD40022AA
:0E656600EFF0A3EDF0A3EBF0A3EAF0A3E9F051
:0965740090FE817401F0025F9EAB
:04664800E025E0FF6A
:0E664C0090FE86EFF090FE817402F0025F9ED9
:09675F0090FE817403F0025F9EBC
:0F66CF0090FE817404F0125F9E90FE87E0FF2220
:0F646F009004BEE0FBA3E0FAA3E0F9EF1213D212
:0E647E0090FE82E4F090FE817405F0025F9EB5
:0F66DE0090FE827401F090FE817405F0025F9EC1
:0967680090FE817406F0025F9EB0
:10598A0043BA8053BACFEF14600A14600C14600E45
:10599A002403800D43BA10800843BA20800343BA17
:1059AA003090FE80E04440F0E04480F0C083C08242
:1059BA00E0FB900487A3A3A3E0FFEB4FD082D08340
:0A59CA00F090FE82E4F053BA7F2251
:1056170090055DEFF0A905126574EF60037F012225
:1056270090055D126648EF60037F012212675FEF06
:1056370060037F0122AF0112664CEF60037F0122F6
:1056470012675FEF60037F0122AF0312664CEF60C2
:10565700037F012212675FEF60037F0122126768F1
:09566700EF60037F01227F0022A5
:1053030090051C126566EF60037F012290051C1255
:105313006648EF60037F012212675FEF60037F013E
:105323002290051DE0FF12664CEF60037F012212FD
:10533300675FEF60037F012290051CE025E04401D5
:10534300FF12664CEF60037F012212675FEF600379
:105353007F01221266CF90051E126472EF60037FF5
:0E5363000122126768EF60037F01227F0022A3
:104DC3009004BC126566EF60037F01229004BC125D
:104DD3006648EF60037F012212675FEF60037F0184
:104DE300229004BDE0FF12664CEF60037F012212A4
:104DF300675FEF60037F01229004BCE025E044017C
:104E0300FF12664CEF60037F012212675FEF6003BE
:104E13007F01229004C1E014F060181266CF12647F
:104E23006FEF60037F01229004BFE475F001121459
:104E3300A380E01266CF12646FEF60037F0122123A
:0B4E43006768EF60037F01227F002200
:10005E0043BA8053BACFEF14600A14600C14600ECA
:10006E002403800D43BA10800843BA20800343BA9C
:05007E003053BA7F229F
:0B2A2000900445EFF0A3EDF0A3EBF0F5
:102A2B00A3E0F8A3E0F9A3E0FAA3E0FB900530E004
:102A3B00FCA3E0FDA3E0FEA3E0FF121592E47B04F0
:102A4B00FAF9F8121592C3E49FFFE49EAD07FC90D0
:102A5B000445E0147003022AF9147003022B3C1492
:102A6B007003022B9524036003022BF290044CE0BD
:102A7B00FB7A00640170144398508D8BECF58D43F9
:102A8B008E40D28EE49001CAF08011EB64024A7042
:102A9B000B4398508DD7ECF5D6438E1553A23F9030
:102AAB000446E0F9FF7E007008A3E0640170028029
:102ABB0035EF64024E700D900447E06403700543DC
:102ACB00A2408022E96404700D900447E064057015
:102ADB000543A2808010E96406700B900447E06404
:102AEB0007700343A2C0E49001CAF0D2AC22900459
:102AFB004CE06402700B439A108DD7ECF5D6438EE5
:102B0B001453BAFE900446E0FF7E0064087008A3DD
:102B1B00E0640970028011EF640A4E700B90044759
:102B2B00E0640B700343BA0143AF01E49001CBF0B7
:102B3B002290044CE0FB7A006402700D439A108DD6
:102B4B00D7ECF5D6438E148011EB64034A700B431C
:102B5B00AC508DD5ECF5D443D10A53BAFD90044655
:102B6B00E0FF7E00640C7008A3E0640D700280111E
:102B7B00EF640E4E700B900447E0640F700343BA82
:102B8B000243AF08E49001CCF02290044CE0FB7AB6
:102B9B00006402700D4384108DD7ECF5D6438E1470
:102BAB008011EB64044A700B4384508DD3ECF5D247
:102BBB0043D1A053BAFB900446E0FF7E0064107033
:102BCB0008A3E0641170028016EF64124E7010902F
:102BDB000447E064137008F5CA75C90443BA04438B
:072BEB00AF10E49001CDF0F2
:012BF20022C0
:0F593F00A3E475F0011214B9A9F0FA12138CFD4C
:10594E00EF14601514601D1460252403702D900152
:10595E00CAE070FA04F08D99229001CBE070FA043F
:10596E00F08D9B229001CCE070FA04F08DAD229068
:0C597E0001CDE070FA04F0AF058F852227
:1061A2009004C3EBF0A3EAF0A3E9F0AE079004C6B3
:1061B20074FFF5F01214B945F0600CAF069004C3F9
:0861C200E0FB12593F80E622C8
:1061CA0090053CEBF0A3EAF0A3E9F0AE0790053C9A
:1061DA00E0FBA3E0FAA3E0F912138C600AAF069081
:0861EA00053C12593F80E6223A
:1059D40043BC80EF131313541FFB7A006401701748
:1059E400EF5407FEF87401088002C333D8FCFEF4B8
:1059F4005294EE42938019EB4A7015EF5407FEF867
:105A04007401088002C333D8FCFEF45292EE429132
:095A1400ED540F42DE43DE2022B6
:0260CF00A90521
:1060D10053BCF0EF42BC43BC40E5BC30E5FB53BCD4
:1060E100DFAFBDEFFEADBEEDFFAD01A80508800538
:0860F100CEC313CE13D8F9FF52
:0160F9002284
:105D2A00EF14601814602014602614602C24047088
:105D3A0030E4F58AF58C438904D28C22E4F58BF59C
:105D4A008D438940D28E22E4F5D7F5D6438E1822A8
:105D5A00E4F5D5F5D443D10C22E4F5D3F5D243D1F9
:025D6A00C02255
:105C1600EF14601714601E14602514602C240470A1
:105C260030AF8CEFFCAF8AEFFD8026AF8DEFFCAF77
:105C36008BEFFD801CAFD6EFFCAFD7EFFD8012AF28
:105C4600D4EFFCAFD5EFFD8008AFD2EFFCAFD3EFBA
:055C5600FDAF05AE04E6
:015C5B002226
:105A1D00EF14601714601E14602714603024047096
:105A2D0037C28CE4F58CF58AD28C22C28EE4F58DCA
:105A3D00F58BD28E22538EEFE4F5D6F5D7438E102B
:105A4D002253D1F7E4F5D4F5D543D1082253D17FB4
:095A5D00E4F5D2F5D343D1802217
:054CAA0090055EEFF033
:104CAF007E037FE81214187C007D0C121406AB07EC
:104CBF00AA06E4F9F8900530E0FCA3E0FDA3E0FEBE
:104CCF00A3E0FF121592C3E49FFFE49EFE90055EE2
:104CDF00E0F9FD7C00700A8F8AEEF58CD28CD2A998
:104CEF0022ED64014C700A8F8BEEF58DD28ED2AB14
:104CFF0022E9FD7C006402700C8FD7EEF5D6438E4F
:104D0F001043AF0422ED64034C700C8FD5EEF5D435
:104D1F0043D10843AF2022E96404700B8FD3EEF523
:074D2F00D243D18043AF40E5
:014D3600225A
:105EB100EF5403FD7C00700890055F7420F0801A98
:105EC100ED64014C700890055F7410F0800CED6476
:105ED100024C700690055F7460F090055FE0FEEF84
:0D5EE100C4540FFFEE4FFFF07D010222D9E7
:053A1A009003EFEFF046
:103A1F00E49003F8F0125EB143BA809003EFE0FF39
:103A2F0054F02404FDE434FF8D82F583E054E7F075
:103A3F00E0FEEF540333333354F8FFEE4FF09003AF
:103A4F00F0E0F8A3E0F9A3E0FAA3E0FB900530E083
:103A5F00FCA3E0FDA3E0FEA3E0FF121592780F1286
:103A6F0016599003F8EFF09003F0E0F8A3E0F9A3F4
:103A7F00E0FAA3E0FB900530E0FCA3E0FDA3E0FE3D
:103A8F00A3E0FF121592C006C0079003F8E02401CF
:103A9F00FFE433AB07FA3395E0F9F8D007D00612FD
:103AAF0015929003F6EEF0A3EFF09003F4E0FCA371
:103ABF00E0FDE41211BA7B007A40791C78461210AF
:103ACF009FC004C005C006C0079003F6E0FCA3E04A
:103ADF00FDE41211BAD003D002D001D000120F961C
:103AEF001211F39003F8E090FFF2F09003F6E0FD6F
:103AFF00A3E090FFF0CDF0A3EDF09003EFE054F0D2
:103B0F00FD7C002400FBEC34FF8B82F583EEF0A3E9
:103B1F00EFF0ED2404FFEC34FF8F82F583E0448057
:073B2F00F053BA7F75FE8020
:013B3600226C
:05567000900560EFF061
:1056750043BA80AE04AF05E41211BA7B007A4079D3
:105685001C784612109FC004C005C006C00790FFD5
:10569500F0E0FCA3E0FDE41211BAD003D002D00182
:1056A500D000120F961211F3900560E054F024001B
:1056B500FDE434FF8D82F583EEF0A3EFF053BA7F5E
:0156C50022C2
:064E4E0090052112168CF4
:104E5400E4900525F043BA80900521E0F8A3E0F939
:104E6400A3E0FAA3E0FB900530E0FCA3E0FDA3E09F
:104E7400FEA3E0FF121592780F121659900525EF44
:104E8400F0900521E0F8A3E0F9A3E0FAA3E0FB9099
:104E94000530E0FCA3E0FDA3E0FEA3E0FF121592C1
:104EA400C006C007900525E02401FFE433AB07FAF0
:104EB4003395E0F9F8D007D006121592900525E055
:0F4EC40090FFF2F090FFF0EEF0A3EFF053BA7F03
:014ED30022BC
:10632A0048037D00000000000000004803750000DB
:06633A000000000000005D
:10550100E4F5D875D906EF64017054EDB40A005082
:105511004E905519F828287302553702553B02550C
:105521003F02554302554702554B02554F02555311
:1055310002555702555DE4F5DA2275DA422275DA31
:10554100632275DA532275DA732275DA202275DA4D
:10555100102275DA302275DA49D2DE2275DA4C2250
:10665A00EF64017008AFFAEFFCAFEAEFFDAF05AEE9
:01666A00042B
:01666B00220C
:0A671900EF64017004F5F9F5E922C0
:0536940090053FEFF07E
:10369900C2DEAFF9EFFFABE9EBA3CFF0A3EFF090F8
:1036A900053FE070617E037FE81214187C007D0CF1
:1036B900121406AB07AA06E4F9F8900530E0FCA35A
:1036C900E0FDA3E0FEA3E0FF121592AC06AD079062
:1036D9000375ECF0A3EDF075DA4985E9EA85F9FAA5
:1036E900900375E0FEA3E0FF90037EE02FFF9003B7
:1036F9007DE03EFE900541E02FFF900540E03E90C1
:10370900037DF0A3EFF090053FE0640170617E0353
:103719007FE81214187C007D0C121406AB07AA0668
:10372900E4F9F8900530E0FCA3E0FDA3E0FEA3E096
:10373900FF121592AC06AD07900377ECF0A3EDF0FC
:1037490075DB4985E9EB85F9FB900377E0FEA3E09A
:10375900FF900380E02FFF90037FE03EFE9005413C
:10376900E02FFF900540E03E90037FF0A3EFF0903B
:10377900053FE0640270557E037FE81214187C004F
:103789007D0C121406AB07AA06E4F9F8900530E09F
:10379900FCA3E0FDA3E0FEA3E0FF121592900379DC
:1037A900EEF0A3EFF075DC4985E9EC85F9FC9003AF
:1037B90082E02FFF900381E03EFE900541E02FFF5C
:0E37C900900540E03E900381F0A3EFF0D2DEC9
:0137D70022CF
:104A5900AD07EDFB7A00702090037DE0FEA3E0F541
:104A6900EAEEF5FA900375E0FEA3E0FF90037EE01D
:104A79002FF090037DE03EF0EB64014A7020900333
:104A89007FE0FEA3E0F5EBEEF5FB900377E0FEA3F4
:104A9900E0FF900380E02FF090037FE03EF0ED64AB
:104AA900027020900381E0FEA3E0F5ECEEF5FC90A6
:104AB9000379E0FEA3E0FF900382E02FF0900381E9
:104AC900E03EF0ED64037020900383E0FEA3E0F57F
:104AD900EDEEF5FD90037BE0FEA3E0FF900384E09B
:094AE9002FF0900383E03EF0225F
:10604100EF7007ED24FF9288D2A8EF64017007ED8D
:1060510024FF928AD2AAEFFD7C0064027003758F3F
:1060610010ED64034C7003758F20ED64044C7003D4
:04607100758F4022C5
:056340004205500000C1
:10617900E47BE07A2EF9F8900530E0FCA3E0FDA37A
:10618900E0FEA3E0FF121592900550EEF0A3EFF0A8
:0961990075DD48E4F5D9D2DE22DF
:10648C00AFF9EFFEADE9EDFF900551E02FFF900560
:0C649C0050E03E8FEDF5FD30DBFDC2DB73
:0164A80022D1
:1065BE00AB07AA06EB1BAE0270011A4E6005126401
:0465CE008C80F122AA
:10556100EDFB7A0064017025EFC4540F2410FDE4B3
:1055710034FE8D82F583C083C082E0FEEF540FFFBD
:10558100F87401088002C333D8FC4E8028EB4A70BE
:1055910029EFC4540F2410FDE434FE8D82F583C03D
:1055A10083C082E0FEEF540FFFF87401088002C34C
:0B55B10033D8FCF45ED082D083F022DF
:1022D900EF54F0F9FB7A007062ED14601F1460305E
:1022E90014604424037054EF540FFEF874010880FD
:1022F90002C333D8FCF452935294803FEF540FFE3B
:10230900F87401088002C333D8FCFEF45293802884
:10231900EF540FFEF87401088002C333D8FCFE4263
:1023290093EEF452948014EF540FFEF87401088070
:1023390002C333D8FCFE4293EE4294EB64104A7018
:1023490062ED14601F14603014604424037054EF6C
:10235900540FFEF87401088002C333D8FCF452917B
:102369005292803FEF540FFEF87401088002C33384
:10237900D8FCFEF452918028EF540FFEF87401083E
:102389008002C333D8FCFE4291EEF452928014EFDE
:10239900540FFEF87401088002C333D8FCFE429141
:1023A900EE4292E964207062ED14601F14603014EB
:1023B900604424037054EF540FFEF874010880023E
:1023C900C333D8FCF452955296803FEF540FFEF870
:1023D9007401088002C333D8FCFEF452958028EFBB
:1023E900540FFEF87401088002C333D8FCFE4295ED
:1023F900EEF452968014EF540FFEF874010880022F
:10240900C333D8FCFE4295EE4296E9FB7A0064306C
:102419007062ED14601F146030146044240370541A
:10242900EF540FFEF87401088002C333D8FCF4524C
:10243900B152B2803FEF540FFEF87401088002C315
:1024490033D8FCFEF452B18028EF540FFEF8740122
:10245900088002C333D8FCFE42B1EEF452B28014B4
:10246900EF540FFEF87401088002C333D8FCFE4212
:10247900B1EE42B2EB64404A7062ED14601F146021
:102489003014604424037054EF540FFEF8740108AB
:102499008002C333D8FCF452B352B4803FEF540FD7
:1024A900FEF87401088002C333D8FCFEF452B380ED
:1024B90028EF540FFEF87401088002C333D8FCFEDC
:1024C90042B3EEF452B48014EF540FFEF8740108CD
:1024D9008002C333D8FCFE42B3EE42B4E9645070C3
:1024E90062ED14601F14603014604424037054EFCB
:1024F900540FFEF87401088002C333D8FCF452C9A2
:1025090052CA803FEF540FFEF87401088002C333AA
:10251900D8FCFEF452C98028EF540FFEF874010864
:102529008002C333D8FCFE42C9EEF452CA8014EFCC
:10253900540FFEF87401088002C333D8FCFE42C967
:10254900EE42CAE9FB7A0064607062ED14601F1400
:10255900603014604424037054EF540FFEF8740182
:10256900088002C333D8FCF452CB52CC803FEF54DD
:102579000FFEF87401088002C333D8FCFEF452CB75
:102589008028EF540FFEF87401088002C333D8FC89
:10259900FE42CBEEF452CC8014EF540FFEF87401D6
:1025A900088002C333D8FCFE42CBEE42CCEB647008
:1025B9004A7060ED14601E14602F14604224037089
:1025C90052EF540FFEF87401088002C333D8FCF4AB
:1025D90052E152E222EF540FFEF87401088002C35F
:1025E90033D8FCFEF452E18027EF540FFEF8740152
:1025F900088002C333D8FCFE42E1EEF452E222EF36
:10260900540FFEF87401088002C333D8FCFE42E17E
:04261900EE42E22289
:0667710043C780022DA9C0
:04003E0053C77F2203
:0E670B00E5C75401640170037F01227F002264
:102DA90053C7F87F807EC37DFF7CFF900530E0F834
:102DB900A3E0F9A3E0FAA3E0FBC3121648400122FD
:102DC9007F807EC37DFF7CFF900530E0F8A3E0F9AA
:102DD900A3E0FAA3E0FBD31216485019E4FF7E36AC
:102DE900FDFC900530E0F8A3A3A3E0C31216484008
:102DF9000443C70122E4FF7E36FDFC900530E0F86C
:102E0900A3E0F9A3E0FAA3E0FBD31216485019E4B2
:102E1900FF7E2DFDFC900530E0F8A3A3A3E0C312CB
:102E29001648400443C70222E4FF7E2DFDFC9005AD
:102E390030E0F8A3E0F9A3E0FAA3E0FBD3121648C7
:102E49005019E4FF7E1BFDFC900530E0F8A3A3A315
:102E5900E0C3121648400443C70322E4FF7E1BFD6A
:102E6900FC900530E0F8A3E0F9A3E0FAA3E0FBD376
:102E7900121648501B7F807E8D7DFF7CFF900530A8
:102E8900E0F8A3A3A3E0C3121648400443C70422F1
:102E99007F807E8D7DFF7CFF900530E0F8A3E0F90F
:102EA900A3E0FAA3E0FBD3121648501B7FC07EC6ED
:102EB9007DFF7CFF900530E0F8A3A3A3E0C31216C1
:102EC90048400443C705227FC07EC67DFF7CFF9032
:102ED9000530E0F8A3E0F9A3E0FAA3E0FBD312166A
:102EE90048501B7F807E847DFF7CFF900530E0F891
:102EF900A3A3A3E0C3121648400443C706227F8058
:102F09007E847DFF7CFF900530E0F8A3E0F9A3E023
:102F1900FAA3E0FBD31216485019E47F407E42FD24
:102F2900FC900530E0F8A3A3A3E0C31216484003C0
:042F390043C7072261
:105C5C009004CAEBF0A3EAF0A3E9F0AD07AC06752B
:105C6C00C5019004CDE0FF14F0EF60288DC4ECF575
:105C7C00C375C65A75C6A59004CAE0FBA3E475F0BB
:105C8C00011214B9A9F0FAE5C21213D20DBD00012C
:055C9C000C0080CE2287
:105CA1009004D0EBF0A3EAF0A3E9F0AD07AC0675E0
:105CB100C5029004D3E0FF14F0EF60288DC4ECF529
:105CC100C39004D0E0FBA3E475F0011214B9A9F06C
:105CD100FA12138CF5C20DBD00010C75C65A75C6BA
:055CE100A50080CE22A9
:10669F0075C5038FC4EEF5C375C65A75C6A500221E
:0667770025640025660008
:0A672300C2A2C2A1120006D2A222F7
:0A672D00C2A2D2A1120006D2A222DD
:04634600AD07AC06ED
:10634A00EC900552F0A3EFF0C2A2D2A1900552E060
:0E635A00FF120006900553E0FF120006D2A2CB
:016368002212
:1054A00090044DEEF0A3EFF0A3ECF0A3EDF0A3EA2F
:1054B000F0A3EBF07F2A126723E4FF12672D90041C
:1054C0004DA3E02402FF12672DE4FF12672D900424
:1054D00051A3E02402FF12672D7F2B126723E4FF04
:1054E00012672D90044FA3E004FF12672DE4FF1212
:1054F000672D900453A3E004FF12672D7F2C0267F1
:015500002387
:0855BC00900538EEF0A3EFF0BA
:1055C400900453E4F0A3749FF07B7F7A00E4FDFC25
:1055D400FFFE1254A0E490053AF090053AE0C3941B
:1055E400A074809480502BE4A3F090053BE0C39416
:1055F40080748094805013900538E0FEA3E0FF127D
:10560400634690053BE004F080E090053AE004F046
:0256140080C84C
:015616002271
:10261D009004807412F0E4A3F0A3F0A3F07B117D7D
:10262D00107F01123C52C2A07F0A7E001265BED2FD
:10263D00A07F787E001265BE7F111267237F787EA2
:10264D00001265BE7FB11267237F0112672D7F2CAB
:10265D0012672D7F2D12672D7FB21267237F011216
:10266D00672D7F2C12672D7F2D12672D7FB312677B
:10267D00237F0112672D7F2C12672D7F2D12672D61
:10268D007F0112672D7F2C12672D7F2D12672D7FF5
:10269D00B41267237F0712672D7FC01267237FA2B5
:1026AD0012672D7F0212672D7F8412672D7FC11255
:1026BD0067237FC512672D7FC21267237F0A1267BA
:1026CD002DE4FF12672D7FC31267237F8A12672DBA
:1026DD007F2A12672D7FC41267237F8A12672D7F91
:1026ED00EE12672D7FC51267237F0E12672D7F3681
:1026FD00126723E4701E14600E14600F1460102412
:10270D000370117FC0800AE4FF80067FA080027FE6
:10271D006012672D7FE01267237F0F12672D7F1ADE
:10272D0012672D7F0F12672D7F1812672D7F2F12C5
:10273D00672D7F2812672D7F2012672D7F2212674C
:10274D002D7F1F12672D7F1B12672D7F2312672D83
:10275D007F3712672DE4FF12672D7F0712672D7FDC
:10276D000212672D7F1012672D7FE11267237F0FF5
:10277D0012672D7F1B12672D7F0F12672D7F17128A
:10278D00672D7F3312672D7F2C12672D7F291267DE
:10279D002D7F2E12672D7F3012672D7F3012672D02
:1027AD007F3912672D7F3F12672DE4FF12672D7F52
:1027BD000712672D7F0312672D7F1012672D7F2A59
:1027CD00126723E4FF12672D7F0212672DE4FF12BB
:1027DD00672D7F8212672D7F2B126723E4FF12670F
:1027ED002D7F0312672DE4FF12672D7F8312672D56
:1027FD007FF01267237F0112672D7FF6126723E4A6
:10280D00FF12672D7F3A1267237F0512672D7F29EF
:0A281D0012672374FFFFFE0255BC92
:105D6C009004D4EEF0A3EFF09004D8EAF0A3EBF09B
:105D7C009004D6ECF0A3EDF09004D4E0FAA3E0FB91
:105D8C00FFAE02C007A3E0FFA3E0900453CFF0A343
:105D9C00EFF0D0071254A09004D8E0FEA3E0FF026D
:025DAC0063464C
:06462F00F583E02430FBDE
:10463500900455EEF0A3EFF0A3ECF0A3EDF0A3EB9F
:01464500F084
:10464600E4A3F090045AE0F9C39410748094804077
:10465600030246F9E9FF900458E02FFD900457E065
:104666003400FC900456E02407FB900455E0340027
:10467600FA7E00900457E0F8A3E02FFFEE3890048E
:1046860053F0A3EFF0900455E0FEA3E0FF1254A010
:1046960090045AE0FF900459E075F010A42496F5B2
:1046A60082E5F034FEF583E5822FF582E43583F565
:1046B60083E49390045CF0E490045BF090045BE088
:1046C600C39408748094805021A3E030E0067F00F4
:1046D6007EF8800474FFFFFE12634690045CE0C31C
:1046E60013F090045BE004F080D290045AE004F0EA
:0346F60002464930
:0146F900229E
:1050BD00900417EEF0A3EFF0A3ECF0A3EDF0A3EB4B
:0750CD00F0A3EAF0A3E9F0F3
:1050D400E4A3F0A3F090041BE0FBA3E0FAA3E0F93F
:1050E400A3E0FEA3E0FFF5828E831213A5FB603ECE
:1050F400EF7803C333CE33CED8F9FF900418E02FF2
:10510400FF900417E03EFE90041AE0C4F8540FC860
:1051140068FD900419E0C454F048FC12463590042C
:0E5124001FE004F070AF90041EE004F080A7BE
:01513200225A
:1042E000900420EEF0A3EFF0A3ECF0A3EDF0A3EB2D
:0142F000F0DD
:1042F1003395E0C364809480900423E0C4F8540FA4
:10430100C868FD900422E0C454F048FC900420E009
:10431100FEA3E0FF40077B20124635800C7B2D1267
:104321004635900424E0F404F0900424E0FF75F095
:104331006412136A900425F0EF75F00A12136AFFF4
:1043410075F00A12136AAFF0900426EFF09004247E
:10435100E0FF75F00A12136AAFF0900427EFF0E462
:10436100A3F0900428E0FBFF7E00C39403748094C3
:10437100805045EF2401FFEE33FEEF7803C333CEC7
:1043810033CED8F9FF900421E02FFF900420E03EC6
:10439100FE900423E0C4F8540FC868FD900422E0A5
:1043A100C454F048FC74252BF582E4340412462FE2
:0843B100900428E004F080AA4A
:0143B90022E1
:0E4FCF0090045DEEF0A3EFF0A3ECF0A3EDF084
:104FDD00EB75F06484A3F0EB75F00A8475F00A8428
:104FED00A3E5F0F0EB75F00A84A3E5F0F0E4A3F08F
:104FFD00900464E0C3940374809480503BE0FB758F
:10500D00F008A4FF90045EE02FFF90045DE035F002
:10501D00FE900460E0C4F8540FC868FD90045FE092
:10502D00C454F048FC74612BF582E4340412462F0D
:08503D00900464E004F080B867
:015045002248
:1037D800900392EEF0A3EFF0A3ECF0A3EDF0A3EAD0
:0437E800F0A3EBF06F
:1037EC00C3EA64809480900395E0C4F8540FC868D1
:1037FC00FD900394E0C454F048FC900392E0FEA3C7
:10380C00E0FF501C7B2D124635900396E0FEA3E0A2
:10381C00FFC3E49FFFE49E900396F0A3EFF08005B6
:10382C007B20124635900396E0FAA3E0FB7C277DC3
:10383C0010FFAE0212146DA3EFF07C037DE8AF0312
:10384C00AE0212146D7C007D0A12146DA3EDF09083
:10385C000396A3E07C007D64FFAE0212146D7C0025
:10386C007D0A12146D90039AEDF07C007D0AAF0373
:10387C00AE0212146D7C007D0A12146DA3EDF09053
:10388C000396E0FEA3E0FF7C007D0A12146D90030A
:10389C009CEDF0E4A3F090039DE0FBFF7E00C3944D
:1038AC0005748094805045EF2401FFEE33FEEF78D1
:1038BC0003C333CE33CED8F9FF900393E02FFF90A0
:1038CC000392E03EFE900395E0C4F8540FC868FDE7
:1038DC00900394E0C454F048FC74982BF582E434C3
:0C38EC000312462F90039DE004F080AA18
:0138F80022AD
:0E46FA009003F9EEF0A3EFF0A3ECF0A3EDF0C7
:104708007C277D10AF03AE02121418A3EFF07C03D0
:104718007DE8AF03AE021214187C007D0A1214184B
:10472800A3EDF07C007D64AF03AE021214187C0088
:104738007D0A121418A3EDF07C007D0AAF03AE02C7
:104748001214187C007D0A121418A3EDF0AE02AF03
:10475800037C007D0A121418A3EDF0E4A3F0900482
:1047680002E0C3940574809480503BE0FB75F00828
:10477800A4FF9003FAE02FFF9003F9E035F0FE90D4
:1047880003FCE0C4F8540FC868FD9003FBE0C45470
:10479800F048FC74FD2BF582E4340312462F900494
:0647A80002E004F080B8FD
:0147AE0022E8
:0E3E5E009002B7EEF0A3EFF0A3ECF0A3EDF0AE
:103E6C009002BFE0FFC3740A9F7480F898500374EB
:103E7C000AF09002BFE004F09002BBE0FCA3E0FD6E
:103E8C00A3E0FEA3E0FFE4FBFAF9F8D312163240EC
:103E9C00319001D174FFF0A37467F0A37477F090A4
:103EAC0002BBE0FCA3E0FDA3E0FEA3E0FF9001D485
:103EBC0012168C0B7A0279C0121D379002E2EFF0C9
:103ECC0080389002C07420F09001D174FFF0A3747C
:103EDC0067F0A37477F09002BBE0FCA3E0FDA3E0D5
:103EEC00FEA3E0FF9001D412168C7B017A0279C1FB
:103EFC00121D379002E2EFF0801E9002BFE0FF909F
:103F0C0002E2E0FEC39F501574C02EF582E4340229
:103F1C00F5837420F09002E2E004F080DD74C02F91
:103F2C00F582E43402F583E4F09002B7E0FEA3E0FE
:103F3C00FFA3E0FCA3E0FD7B017A0279C00250BD37
:0E30D00090022AEEF0A3EFF0A3ECF0A3EDF0D7
:1030DE00900233E0FFC374069F7480F89850037417
:1030EE0006F0900232E0FFC3740A9F7480F8985085
:1030FE0003740AF090022EE0FCA3E0FDA3E0FEA311
:10310E00E0FFE4FBFAF9F812113C9001D160314076
:10311E002F74FFF0A37467F0A3747AF090022EE080
:10312E00FCA3E0FDA3E0FEA3E0FF9001D412168CF9
:10313E007B017A027935121D37900234EFF0803020
:10314E0074FFF0A37467F0A3747AF090022EE0FC83
:10315E00A3E0FDA3E0FEA3E0FF9001D412168C7B4A
:10316E00017A027936121D37900234EFF0E004F046
:10317E00900234E024F9FD900232E0FEC3ED9E147D
:10318E00900257F0900233E0AE052E04900258F0F4
:10319E00900257E0FF3395E0FED3E49FEE6480F893
:1031AE007480984022A3E0FF3395E0FE74352FF52E
:1031BE008274023EF5837420F0900258E004F09081
:1031CE000257E004F080C990022EE0FCA3E0FDA3BC
:1031DE00E0FEA3E0FFE4FBFAF9F812113C9002576F
:1031EE0060174015E0FF3395E0FE74352FF58274BD
:1031FE00023EF583742DF08013E0FF3395E0FE74EC
:10320E00352FF58274023EF5837420F0900258E05B
:10321E00FF3395E0FE74352FF58274023EF583E49C
:10322E00F090022AE0FEA3E0FFA3E0FCA3E0FD7B0A
:08323E00017A0279350250BD4E
:0B3B37009003CEEBF0A3EAF0A3E9F04E
:103B420074FFFFFE1255BCE49003D5F0A3F0E4909D
:103B520003D3F0A3F09003D3E0FAA3E0FB7C007D53
:103B620028FFAE02121406C006C007A3E0FEA3E0BF
:103B7200FF121406C006C007AF03AE02121406EF0E
:103B82002427FBE43EFA9003D5E0FEA3E0FF1214E3
:103B920006EF2427FFE43E900453F0A3EFF0D00594
:103BA200D004D007D0061254A0E49003D1F0A3F0C1
:103BB2009003D2E025E0FF9003D1E033FE9003CEE4
:103BC200E0FBA3E0FAA3E0F98F828E831213A590A3
:103BD20003D8F0E92FF9EA3EFA9000011213A590FA
:103BE20003D7F0FEA3E0FDEDFF1263469003D2E09F
:103BF20004F070069003D1E004F0C39003D2E09485
:103C0200409003D1E06480948640A59003D4E00400
:103C1200F070069003D3E004F0C39003D4E0940361
:103C22009003D3E0648094805003023B579003D604
:103C3200E004F070069003D5E004F0C39003D6E0F0
:0F3C420094049003D5E0648094805003023B50BB
:013C51002250
:10009600000000000000000000000000000000005A
:1000A6000000000808080808080800000808000002
:1000B6000048242412000000000000000000000098
:1000C6000000004848487E2424247E24242400007E
:1000D6000000103C5252121C30505052523C10102C
:1000E600000000222515150D2A58545452220000EE
:1000F6000000000C1212120A76252919916E0000D2
:1001060000060404020000000000000000000000D9
:1001160000402010100808080808081010204000A9
:10012600000204080810101010101008080402003D
:100136000000000008086B1C1C6B0808000000008B
:100146000000000000101010FE101010000000004B
:100156000000000000000000000000000604040289
:1001660000000000000000007E000000000000000B
:10017600000000000000000000000000060600006D
:100186000000402020201010080808040402020085
:100196000000001824424242424242422418000013
:1001A600000000101C10101010101010107C000021
:1001B6000000003C4242424020100804427E0000FB
:1001C6000000003C4242402018204042423C0000D1
:1001D60000000020303028242422FE2020F80000D1
:1001E6000000007E0202021E22404042221C000045
:1001F600000000182402023A4642424244380000F7
:100206000000007E422020101008080808080000A0
:100216000000003C4242422418244242423C000074
:100226000000001C22424242625C4040241800004A
:100236000000000000001818000000001818000058
:100246000000000000000008000000000008080888
:10025600000000402010080402040810204000009E
:100266000000000000007E00007E0000000000008C
:1002760000000002040810204020100804020000BC
:100286000000003C424246201010100018180000E2
:100296000000001C225A55555555553A423C00005F
:1002A6000000000808181414243C224242E700000B
:1002B6000000001F2222221E22424242221F00006C
:1002C6000000007C4242010101010142221C0000A3
:1002D6000000001F2242424242424242221F0000C8
:1002E6000000003F4212121E12120242423F00005C
:1002F6000000003F4212121E121202020207000004
:100306000000003C2222010101712122221C000072
:10031600000000E7424242427E42424242E700007B
:100326000000003E0808080808080808083E000003
:100336000000007C10101010101010101010110F7B
:100346000000007722120A0E0A12122222770000FB
:10035600000000070202020202020202427F0000BF
:100366000000007736363636362A2A2A2A6B0000EF
:10037600000000E346464A4A525252626247000073
:100386000000001C2241414141414141221C000024
:100396000000003F424242423E02020202070000C3
:1003A6000000001C224141414141414D321C600088
:1003B6000000003F4242423E1212222242C7000083
:1003C6000000007C4242020418204042423E0000E7
:1003D6000000007F4908080808080808081C0000F3
:1003E600000000E74242424242424242423C000092
:1003F600000000E7424222242414141808080000D2
:100406000000006B2A2A2A2A2A3614141414000023
:10041600000000E7422424181818242442E70000AC
:10042600000000772222141408080808081C00009F
:100436000000007E2120101008040442423F000004
:100446000078080808080808080808080808780056
:100456000000020404040808081010202020404070
:10046600001E1010101010101010101010101E008A
:10047600001824000000000000000000000000003A
:1004860000000000000000007E00000000000000E8
:100496000006080000000000000000000000000048
:1004A600000000000000001C22302C22326C0000EC
:1004B600000000000302021A26424242261A0000E9
:1004C6000000000000000038440202024438000028
:1004D600000000006040407C4242424262DC000074
:1004E600000000000000003C42427E02423C000048
:1004F600000000003048083E08080808083E0000D2
:10050600000000000000007C22221C023C42423C0B
:10051600000000000302023A4642424242E700005F
:100526000000000C0C00000E08080808083E000039
:100536000000003030000038202020202020221E1D
:100546000000000003020272120A0E122277000057
:10055600000000080E08080808080808083E000001
:10056600000000000000007F9292929292B7000075
:10057600000000000000003B4642424242E7000005
:10058600000000000000003C42424242423C0000A3
:10059600000000000000001B26424242261A020705
:1005A600000000000000005864424242645840E0E7
:1005B60000000000000000774C040404041F000043
:1005C600000000000000007C42023C40423E000069
:1005D600000000000008083E08080808483000002F
:1005E60000000000000000634242424262DC00005C
:1005F6000000000000000077222214140808000002
:1006060000000000000000DB91525A2A242400005A
:10061600000000000000006E241818182476000060
:1006260000000000000000E742242418180808060D
:10063600000000000000007E22100808447E000032
:1006460000C0202020202020102020202020C000B4
:100656001010101010101010101010101010101094
:10066600000304040404040408040404040403004A
:10067600045A2000000000000000000000000000F6
:100686000000000000000000002F0000000007002E
:10069600070000147F147F1400242A7F2A120062A8
:1006A6006408132300364955225000000503000054
:1006B60000001C224100000041221C000014083EDC
:1006C60008140008083E0808000000A060000008A2
:1006D60008080808000060600000002010080402F6
:1006E600003E5149453E0000427F400000426151B4
:1006F6004946002141454B31001814127F1000274E
:1007060045454539003C4A49493000017109050310
:1007160000364949493600064949291E0000363641
:1007260000000000563600000008142241000014A4
:100736001414141400004122140800020151090681
:1007460000324959513E007C1211127C007F494902
:100756004936003E41414122007F4141221C007F33
:1007660049494941007F09090901003E4149497A41
:10077600007F0808087F0000417F410000204041BB
:100786003F01007F08142241007F40404040007F27
:10079600020C027F007F0408107F003E4141413E6B
:1007A600007F09090906003E4151215E007F0919B3
:1007B60029460046494949310001017F0101003FB0
:1007C6004040403F001F2040201F003F4038403F30
:1007D6000063140814630007087008070061514994
:1007E600454300007F41410000552A552A55000027
:1007F60041417F00000402010204004040404040A5
:10080600000001020400002054545478007F48443C
:10081600443800384444442000384444487F003873
:100826005454541800087E0901020018A4A4A47C9C
:10083600007F080404780000447D40000040808466
:100846007D00007F102844000000417F4000007CAE
:1008560004180478007C08040478003844444438BA
:1008660000FC242424180018242418FC007C080406
:10087600040800485454542000043F444020003CDF
:100886004040207C001C2040201C003C4030403C66
:10089600004428102844001CA0A0A07C00446454F6
:1008A6004C4414141414141400000000000000003A
:1008B6000000000000000000000000F8000000003A
:1008C600000000333000000000100C06100C06007B
:1008D600000000000000000040C07840C0784000E2
:1008E600043F04043F040400007088FC0830000044
:1008F600001820FF211E0000F008F000E01800009C
:1009060000211C031E211E0000F008887000000054
:100916001E2123241927211010160E0000000000A6
:100926000000000000000000000000E018040200C3
:10093600000000071820400000020418E000000034
:100946000040201807000000404080F08040400032
:100956000202010F01020200000000F00000000088
:100966000101011F0101010000000000000000005C
:1009760080B07000000000000000000000000000D1
:10098600000101010101010100000000000000005A
:1009960000303000000000000000000080601804F5
:1009A600006018060100000000E010080810E000D2
:1009B600000F102020100F00001010F8000000009B
:1009C6000020203F202000000070080808887000E2
:1009D6000030282422213000003008888848300062
:1009E6000018202020110E000000C02010F8000082
:1009F60000070424243F240000F80888880808001B
:100A06000019212020110E0000E01088881800002F
:100A1600000F112020110E0000380808C838080001
:100A26000000003F00000000007088080888700081
:100A3600001C222121221C0000E010080810E00002
:100A46000000312222110F00000000C0C00000008B
:100A560000000030300000000000008000000000B0
:100A660000008060000000000000804020100800A8
:100A76000001020408102000404040404040400071
:100A8600040404040404040000081020408000004C
:100A96000020100804020100007048080808F00051
:100AA6000000003036010000C030C828E810E00021
:100AB6000718272423140B000000C038E0000000AC
:100AC600203C23020227382008F888888870000016
:100AD600203F202020110E00C030080808083800EA
:100AE600071820202010080008F808080810E00061
:100AF600203F202020100F0008F88888E808100002
:100B0600203F20202320180008F88888E8081000D5
:100B1600203F200003000000C0300808083800000D
:100B260007182020221E020008F808000008F8080E
:100B3600203F210101213F20000808F80808000095
:100B46000020203F2020000000000808F8080800C8
:100B5600C08080807F00000008F888C02818080040
:100B6600203F20012638200008F808000000000079
:100B7600203F20202020300008F8F800F8F8080070
:100B8600203F003F003F200008F830C00008F8086A
:100B9600203F200007183F00E01008080810E0007A
:100BA6000F10202020100F0008F808080808F00091
:100BB600203F210101010000E01008080810E000B4
:100BC6000F18242438504F0008F888888888700049
:100BD600203F2000030C30200070880808083800E9
:100BE6000038202121221C00180808F808081800DF
:100BF6000000203F2000000008F808000008F80860
:100C0600001F202020201F000878880000C8380810
:100C1600000007380E010000F80800F80008F80088
:100C2600033C0700073C0300081868808068180822
:100C360020302C03032C30200838C800C8380800A0
:100C46000000203F2000000010080808C8380800EF
:100C56002038262120201800000000FE0202020093
:100C66000000007F40404000000C30C00000000043
:100C7600000000010638C00000020202FE0000006B
:100C8600004040407F000000000004020202040011
:100C9600000000000000000000000000000000004E
:100CA6008080808080808080000202040000000036
:100CB600000000000000000000008080808000002E
:100CC6000019242222223F2008F80080800000001C
:100CD600003F112020110E000000008080800000DF
:100CE600000E112020201100000000808088F800EE
:100CF600000E112020103F20000080808080000020
:100D0600001F222222221300008080F08888881883
:100D16000020203F2020000000008080808080008E
:100D2600006B94949493600008F800808080000023
:100D3600203F210000203F200080989800000000FE
:100D46000020203F2020000000000080989800002E
:100D560000C08080807F000008F80000808080004E
:100D6600203F24022D302000000808F80000000073
:100D76000020203F2020000080808080808080002E
:100D8600203F20003F20003F8080008080800000C0
:100D9600203F210000203F2000008080808000004E
:100DA600001F202020201F0080800080800000007F
:100DB60080FFA12020110E000000008080808000AE
:100DC600000E112020A0FF8080808000808080009F
:100DD60020203F21200001000000808080808000CC
:100DE6000033242424241900008080E08080000041
:100DF6000000001F2020000080800000008080008E
:100E0600001F202020103F208080800000808080EE
:100E160000010E300806010080800080008080807E
:100E26000F300C030C300F000080800080808000A3
:100E36000020312E0E3120008080800000808080CE
:100E460080818E701806010000808080808080007E
:100E56000021302C2221300000000000807C02029C
:100E660000000000003F404000000000FF000000BE
:100E760000000000FF0000000002027C800000006D
:100E86000040403F00000000000601010202040489
:080E9600000000000000000054
:1062B400E4900561F0900561E064126017E4FB7DF1
:1062C400757F69125F2B900561EFF07F0A7E0012E3
:0462D40065BE80E142
:0162D80022A3
:1053D9007F0A7E001265BE1262B47B807D6B7F6995
:1053E9001264E37F027E001265BEE4FB7D6B7F6978
:1053F900125F2BEF20E7F37B017D6B7F691264E37A
:10540900E4FB7D6C7F691264E37B017D1A7F69127D
:1054190064E37B077D197F691264E37B187D1B7F39
:10542900691264E37B107D1C7F691264E37B037D51
:065439001D7F690264E31F
:10580B007B017A0479DA9004977406F0E4A3F07DB7
:10581B003B7F69124F569004DAE0FEA3E0FDEDFFEB
:10582B0090039EEEF0A3EFF09004DCE0FEA3E0FD0E
:10583B00EDFF9003A0EEF0A3EFF09004DEE0FEA3EB
:0C584B00E0FDEDFF9003A2EEF0A3EFF0F3
:01585700222E
:105858007B017A0479E09004977406F0E4A3F07D64
:10586800437F69124F569004E0E0FEA3E0FDEDFF90
:105878009003A4EEF0A3EFF09004E2E0FEA3E0FDB5
:10588800EDFF9003A6EEF0A3EFF09004E4E0FEA392
:0C589800E0FDEDFF9003A8EEF0A3EFF0A0
:0158A40022E1
:0661F200C292EF4480FFA1
:1061F800E4FEEEC39408748094805015EF339293B4
:10620800EF25E0FFC295D295A294E4334FFF0E80AC
:01621800E1A4
:016219002262
:0D001600C2921261F8AF051261F8D2922279
:0F66ED001261F2E4FF1261F8EF1213D2D292227F
:0B5E3100900527EBF0A3EAF0A3E9F0D6
:105E3C001261F2E4FDFC90052AE0FFC3ED9FEC94A7
:105E4C0000501FE4FF1261F8900527E0FBA3E0FA75
:105E5C00A3E0F98D828C83EF1213E40DBD00010CCD
:045E6C0080D4D2927A
:015E7000220F
:1065D2007B017A0579627F751266ED900562E0644F
:0365E2001270ED47
:0165E5002293
:1056C6001265D27D807F6B1200167F027E00126506
:1056D600BE7B017A0579637F6B1266ED900563E008
:1056E600644170ED7D017F6B1200161D7F6C120008
:1056F600160D7F1A1200167D077F191200167D18E7
:105706007F1B1200167D107F1C1200167D037F1D65
:0357160002001678
:105AAF007B017A0479E690052A7406F07F3B125E3B
:105ABF00319004E6E0FEA3E0FDEDFF90039EEEF0D3
:105ACF00A3EFF09004E8E0FEA3E0FDEDFF9003A04C
:105ADF00EEF0A3EFF09004EAE0FEA3E0FDEDFF90FF
:075AEF0003A2EEF0A3EFF0AB
:015AF600228D
:105AF7007B017A0479EC90052A7406F07F43125EE5
:105B0700319004ECE0FEA3E0FDEDFF9003A4EEF07E
:105B1700A3EFF09004EEE0FEA3E0FDEDFF9003A6F7
:105B2700EEF0A3EFF09004F0E0FEA3E0FDEDFF90B0
:075B370003A8EEF0A3EFF05C
:015B3E002244
:0E667D00EBF0A3EAF0A3E9F0C292EF4480FF35
:03668B0002000604
:10002600900564EDF0C29212668B900564E0FF12B3
:05003600668BD292224E
:1064A90090054212667DE4FF12668B900542E0FB7F
:0D64B900A3E0FAA3E0F9EF1213D2D2922271
:0357190090048C6D
:10571C0012667DE4900490F0A3F090048FE0FFC338
:10572C00900491E09F900490E09400502FE4FF12BD
:10573C00668B90048CE0FBA3E0FAA3E0F990049054
:10574C00E0FCA3E0F5828C83EF1213E4900491E06B
:0E575C0004F070C6900490E004F080BED2927B
:01576A00221C
:10636900E4900565F0900565E0641260147B017A9C
:106379000579657F751264A97F0A7E001265BE8062
:01638900E42F
:01638A0022F0
:10521E00E4900566F07F0AFE1265BE90048074026B
:10522E00F0E4A3F0A3F0A3F07B01FDFF123C5212B9
:10523E0063697D807F6B1200267F027E001265BE41
:10524E007B017A0579667F6B1264A9900566E0642E
:10525E004170ED7D017F6B120026E4FD7F6C120024
:10526E00267D017F1A1200267D077F191200267DEA
:10527E00187F1B1200267D107F1C1200267D037FD7
:04528E001D020026D7
:105B3F007B017A0479F290048F7406F07F3B125741
:105B4F00199004F2E0FEA3E0FDEDFF90039EEEF04E
:105B5F00A3EFF09004F4E0FEA3E0FDEDFF9003A0AF
:105B6F00EEF0A3EFF09004F6E0FEA3E0FDEDFF9062
:075B7F0003A2EEF0A3EFF01A
:015B860022FC
:105B87007B017A0479F890048F7406F07F431257EB
:105B9700199004F8E0FEA3E0FDEDFF9003A4EEF0FA
:105BA700A3EFF09004FAE0FEA3E0FDEDFF9003A65B
:105BB700EEF0A3EFF09004FCE0FEA3E0FDEDFF9014
:075BC70003A8EEF0A3EFF0CC
:015BCE0022B4
:01004200229B
:07657D00C295126584D2955E
:0E6584007F147E00EF1FAC0670011E4C70F6F7
:0165920022E6
:0F66FC00D293D295126584C293126584C29522FF
:0A673700C29312657DD293026584BF
:10651A00AD07C295126584ED6004C2938002D293DE
:0A652A00D295126584C295026584C3
:1065930012657D309306C295E4FEFF22C295126513
:0665A300847E007F01224E
:04624200E025E0FF74
:02624600AD07A2
:106248007B08AF031BEF6015ED30E704D2938002A3
:10625800C293ED25E0FD12657FC29580E502659346
:02600C00AD07DE
:10600E00E4FBC295126584D293E4FAEAC394087451
:10601E00809480501112658412657DEB25E0FB3073
:10602E0093010B0A80E5C295126584AF0512651ABD
:02603E00AF03AE
:01604000223D
:1064E300900567EFF0AA03A9051266FC126242AF9A
:0C64F30001126246AF02126246026737D7
:095F2B00900568EDF0AA07A90336
:105F34001266FCEA25E0FF126246E0FF126246E9BF
:105F4400640170031267371266FCAF02EF25E04468
:105F540001FF126246E4FF12600CAD07126737AF0F
:015F64000537
:015F65002219
:104F5600900492EFF0A3EDF0A3EBF0A3EAF0A3E93F
:104F6600F01266FC900492126242A3E0FF126246BF
:104F7600900498E0640170031267371266FC90048F
:104F860092E025E04401FF126246900497E014F097
:104F960060207F0112600C900494E0FBA3E0FAA36A
:104FA600E0F9EF1213D2900495E475F0011214A300
:104FB60080D8E4FF12600C900494E0FBA3E0FAA30F
:094FC600E0F9EF1213D202673783
:1066AF007D017F031259D47D0A7C00E4FF023694EA
:104AF20090052CEBF0A3EAF0A3E9F090052BEFF080
:104B0200E490052FF0FD12594E90052BE0FF7DFF3A
:104B120012594E90052BE0FF7D0112594E90052B44
:104B2200E0FFE4FD12594EE490052FF090052FE0CE
:104B3200FFC3948074809480504C90052CE0FBA3BA
:104B4200E0FAA3E0F975F002EFA4F58285F0831292
:104B520014CF7D0090052BE0FF12594E90052CE0FA
:104B6200FBA3E0FAA3E0F9A3E075F002A4F58285C5
:104B7200F0831214CFFD90052BE0FF12594E9005E1
:064B82002FE004F080A604
:014B8800220A
:105BCF00E4900444F0D2C8C2C9C2C8D2C9D2C8C274
:105BDF00C9F0900444E0C39480748094805027C22D
:105BEF00C87D027F031260CF900444E025E02401BA
:105BFF00F582E43400F583EEF0A3EFF0D2C8900401
:065C0F0044E004F080CC2B
:015C1500226C
:06677D0025640025660002
:0A674100C2A2C2A1120006D2A222D9
:0A674B00C2A2D2A1120006D2A222BF
:076125002428FFE03400FE16
:04612C00AD07AC0609
:10613000EC900554F0A3EFF0C2A2D2A1900554E078
:0E614000FF120006900555E0FF120006D2A2E5
:01614E00222E
:10352E009004807412F0E4A3F0A3F0A3F07B117D5D
:10353E00107F01123C52D2A4C2A1C2A07FC87E004D
:10354E001265BED2A07F647E001265BE7F36126702
:10355E00417FA012674B7F3A1267417F0512674B7E
:10356E007FB21267417F0C12674B7F0C12674BE4E0
:10357E00FF12674B7F3312674B7F3312674B7FB758
:10358E001267417F3512674B7FBB1267417F37123F
:10359E00674B7FC01267417F2C12674B7FC2126749
:1035AE00417F0112674B7FC31267417F1212674B37
:1035BE007FC41267417F2012674B7FC61267417F1F
:1035CE000F12674B7FD01267417FA412674B7FA10A
:1035DE0012674B7FE01267417FD012674B7F041258
:1035EE00674B7F0D12674B7F1112674B7F1312676C
:1035FE004B7F2B12674B7F3F12674B7F5412674BEB
:10360E007F4C12674B7F1812674B7F0D12674B7FF3
:10361E000B12674B7F1F12674B7F2312674B7FE1A5
:10362E001267417FD012674B7F0412674B7F0C12DB
:10363E00674B7F1112674B7F1312674B7F2C1267FC
:10364E004B7F3F12674B7F4412674B7F5112674B84
:10365E007F2F12674B7F1F12674B7F1F12674B7FA7
:10366E002012674B7F2312674B7F211267417F1118
:10367E001267417F787E001265BE7F291267417402
:06368E00FFFFFE02529254
:10576B00900465EEF0A3EFF0A3ECF0A3EDF0A3EA49
:10577B00F0A3EBF07F2A126741900466E09004657A
:10578B0012612590046AE09004691261257F2B1247
:10579B006741900468E02434FF90046712612890FD
:1057AB00046CE02434FF90046B1261287F2C026799
:0157BB0041AC
:08529200900504EEF0A3EFF01B
:10529A0090046BE4F0A37486F07BEF7A00E4FDFCE3
:1052AA00FFFE12576BE4900506F0A3F0E4900508A0
:1052BA00F0A3F0900504E0FEA3E0FF12612C900534
:1052CA0009E004F07006900508E004F0C3900509AF
:1052DA00E09487900508E0940040D8900507E00420
:1052EA00F07006900506E004F0C3900507E094F01C
:0852FA00900506E0940040B4A9
:015302002288
:105DAE0090050AEEF0A3EFF090050EEAF0A3EBF0EB
:105DBE0090050CECF0A3EDF090050AE0FAA3E0FBE1
:105DCE00FFAE02C007A3E0FFA3E090046BCFF0A3E9
:105DDE00EFF0D00712576B90050EE0FEA3E0FF0226
:025DEE00612C26
:06412400F583E02430FBEE
:10412A0090046DEEF0A3EFF0A3ECF0A3EDF0A3EB97
:01413A00F094
:10413B00E4A3F0900472E0F9C3941074809480406F
:10414B0003024203E9FF900470E02FFD90046FE03F
:10415B003400FC90046EE02407FB90046DE0340007
:10416B00FA7E0090046FE0F8A3E02FFFEE38900486
:10417B006BF0A3EFF090046DE0FEA3E0FF12576B22
:10418B00900471E0FF3395E0FEEFC4F8540FC8685C
:10419B00FFEEC454F048FE74962FF58274FE3EF584
:1041AB0083C083C082900472E0D082D0832582F5D5
:1041BB0082E43583F583E493900474F0E490047304
:1041CB00F0900473E0C39408748094805021A3E0B2
:1041DB0030E0067F007EF8800474FFFFFE12612C36
:1041EB00900474E0C313F0900473E004F080D29059
:0841FB000472E004F002413EF1
:014203002298
:10513300900429EEF0A3EFF0A3ECF0A3EDF0A3EBC2
:07514300F0A3EAF0A3E9F07C
:10514A00E4A3F0A3F090042DE0FBA3E0FAA3E0F9B6
:10515A00A3E0FEA3E0FFF5828E831213A5FB603E57
:10516A00EF7803C333CE33CED8F9FF90042AE02F69
:10517A00FF900429E03EFE90042CE0C4F8540FC8C6
:10518A0068FD90042BE0C454F048FC12412A9004B4
:0E519A0031E004F070AF900430E004F080A724
:0151A80022E4
:1043BA00900432EEF0A3EFF0A3ECF0A3EDF0A3EB40
:0143CA00F002
:1043CB003395E0C364809480900435E0C4F8540FB7
:1043DB00C868FD900434E0C454F048FC900432E00B
:1043EB00FEA3E0FF500E7B2D12412A900436E0F421
:1043FB0004F080057B2012412A900436E0FF75F013
:10440B006412136A900437F0EF75F00A12136AFF07
:10441B0075F00A12136AAFF0900438EFF09004367F
:10442B00E0FF75F00A12136AAFF0900439EFF0E475
:10443B00A3F090043AE0FBFF7E00C39403748094D6
:10444B00805045EF2401FFEE33FEEF7803C333CEEC
:10445B0033CED8F9FF900433E02FFF900432E03EC7
:10446B00FE900435E0C4F8540FC868FD900434E0A6
:10447B00C454F048FC74372BF582E4340412412405
:08448B0090043AE004F080AA5D
:014493002206
:0E504600900475EEF0A3EFF0A3ECF0A3EDF0F4
:10505400EB75F06484A3F0EB75F00A8475F00A84B0
:10506400A3E5F0F0EB75F00A84A3E5F0F0E4A3F017
:1050740090047CE0C3940374809480503BE0FB75FF
:10508400F008A4FF900476E02FFF900475E035F05B
:10509400FE900478E0C4F8540FC868FD900477E0EB
:1050A400C454F048FC74792BF582E434041241248E
:0850B40090047CE004F080B8D8
:0150BC0022D1
:1038F9009003AAEEF0A3EFF0A3ECF0A3EDF0A3EA96
:04390900F0A3EBF04C
:10390D00C3EA648094809003ADE0C4F8540FC86896
:10391D00FD9003ACE0C454F048FC9003AAE0FEA374
:10392D00E0FF501C7B2D12412A9003AEE0FEA3E078
:10393D00FFC3E49FFFE49E9003AEF0A3EFF080057C
:10394D007B2012412A9003AEE0FAA3E0FB7C277D99
:10395D0010FFAE0212146DA3EFF07C037DE8AF03F0
:10396D00AE0212146D7C007D0A12146DA3EDF09061
:10397D0003AEA3E07C007D64FFAE0212146D7C00EB
:10398D007D0A12146D9003B2EDF07C007D0AAF0339
:10399D00AE0212146D7C007D0A12146DA3EDF09031
:1039AD0003AEE0FEA3E0FF7C007D0A12146D9003D0
:1039BD00B4EDF0E4A3F09003B5E0FBFF7E00C394FB
:1039CD0005748094805045EF2401FFEE33FEEF78AF
:1039DD0003C333CE33CED8F9FF9003ABE02FFF9066
:1039ED0003AAE03EFE9003ADE0C4F8540FC868FD95
:1039FD009003ACE0C454F048FC74B02BF582E43471
:0C3A0D00031241249003B5E004F080AAED
:013A1900228A
:0E47AF00900403EEF0A3EFF0A3ECF0A3EDF006
:1047BD007C277D10AF03AE02121418A3EFF07C031B
:1047CD007DE8AF03AE021214187C007D0A12141896
:1047DD00A3EDF07C007D64AF03AE021214187C00D3
:1047ED007D0A121418A3EDF07C007D0AAF03AE0212
:1047FD001214187C007D0A121418A3EDF0AE02AF4E
:10480D00037C007D0A121418A3EDF0E4A3F09004CC
:10481D000CE0C3940574809480503BE0FB75F00868
:10482D00A4FF900404E02FFF900403E035F0FE9008
:10483D000406E0C4F8540FC868FD900405E0C454A4
:10484D00F048FC74072BF582E434041241249004E3
:06485D000CE004F080B83D
:014863002232
:0E3F4C009002E3EEF0A3EFF0A3ECF0A3EDF093
:103F5A009002EBE0FFC3740A9F7480F898500374D0
:103F6A000AF09002EBE004F09002E7E0FCA3E0FD27
:103F7A00A3E0FEA3E0FFE4FBFAF9F8D312163240FD
:103F8A00319001D174FFF0A37467F0A3747DF090AF
:103F9A0002E7E0FCA3E0FDA3E0FEA3E0FF9001D46A
:103FAA0012168C0B7A0279EC121D3790030EEFF081
:103FBA0080389002EC7420F09001D174FFF0A37461
:103FCA0067F0A3747DF09002E7E0FCA3E0FDA3E0B4
:103FDA00FEA3E0FF9001D412168C7B017A0279EDE0
:103FEA00121D3790030EEFF0801E9002EBE0FF9057
:103FFA00030EE0FEC39F501574EC2EF582E43402E2
:10400A00F5837420F090030EE004F080DD74EC2F49
:10401A00F582E43402F583E4F09002E3E0FEA3E0E3
:10402A00FFA3E0FCA3E0FD7B017A0279EC025133A5
:0E324600900259EEF0A3EFF0A3ECF0A3EDF030
:10325400900262E0FFC374069F7480F89850037470
:1032640006F0900261E0FFC3740A9F7480F89850DE
:1032740003740AF090025DE0FCA3E0FDA3E0FEA36A
:10328400E0FFE4FBFAF9F812113C9001D1603140FF
:103294002F74FFF0A37467F0A37480F090025DE0D4
:1032A400FCA3E0FDA3E0FEA3E0FF9001D412168C82
:1032B4007B017A027964121D37900263EFF080304B
:1032C40074FFF0A37467F0A37480F090025DE0FCD7
:1032D400A3E0FDA3E0FEA3E0FF9001D412168C7BD3
:1032E400017A027965121D37900263EFF0E004F071
:1032F400900263E024F9FD900261E0FEC3ED9E14A8
:10330400900286F0900262E0AE052E04900287F0EF
:10331400900286E0FF3395E0FED3E49FEE6480F8EC
:103324007480984022A3E0FF3395E0FE74642FF587
:103334008274023EF5837420F0900287E004F090DA
:103344000286E004F080C990025DE0FCA3E0FDA3E6
:10335400E0FEA3E0FFE4FBFAF9F812113C900286C8
:1033640060174015E0FF3395E0FE74642FF5827416
:10337400023EF583742DF08013E0FF3395E0FE7474
:10338400642FF58274023EF5837420F0900287E086
:10339400FF3395E0FE74642FF58274023EF583E4F6
:1033A400F0900259E0FEA3E0FFA3E0FCA3E0FD7B64
:0833B400017A02796402513331
:102F3D0090033BEEF0A3EFF0A3ECF0A3EDF0A3EBC9
:022F4D00F0F999
:102F4F00E0FF131313541F90034DF0900343E08FD2
:102F5F00F0A424FFFDE5F034FFFC90033BE0FEA35B
:102F6F00E0FF2DFBEE3CFAC002C003C006A3E0FC5D
:102F7F00A3E0FDE9FB7A0090033DE0F8A3E02BFB13
:102F8F00EA38CB24FFFEEB34FF90046BF0A3CEF0B6
:102F9F00D006D003D00212576BE4900346F0A3F093
:102FAF0090033FE0FF900346E0FCA3E0FDC39F7456
:102FBF0080F8EC64809840030230CF900343E09098
:102FCF00034CF0A3E0FF7E00121406900340E0FBD9
:102FDF00A3E0FAA3E02FF9EA3E0230AF90034CE0F2
:102FEF00FF14F0EF70030230BEE490034AF0A3F039
:102FFF0090034DE0FFC390034BE09F7480F8900364
:10300F004AE06480985076900348E4F0A37408F087
:10301F00900348E0FEA3E0FFD39400EE6480948019
:10302F00404090034EE0FBA3E0FAA3E0F912138CAB
:10303F00FDEF14FFF8ED088002C313D8FC540160B4
:10304F000A900344E0FEA3E0FF800474FFFFFE122A
:10305F00612C900349E024FFF0900348E034FFF027
:10306F0080AE90034FE475F0011214A390034BE070
:10307F0004F0700690034AE004F0022FFF90034D16
:10308F00E0FFFDA3E0FBA3E0FAA3E0C39DF9EA9400
:10309F0000FA90033FE0FEEF8EF0A429F9EA35F035
:1030AF00FA90034EEBF0A3EAF0A3E9F0022FEB90B6
:1030BF000347E004F07006900346E004F0022FAFE0
:0130CF0022DE
:1063F100E4FB7D6B7F681264E37B077D197F681284
:1064010064E3E4FB7D197F68125F2BEF640770F290
:016411002268
:105A66007F647E001265BE1263F1E4FB7D6B7F6886
:105A76001264E37B077D197F681264E37B047D1A59
:105A86007F681264E37B187D1B7F681264E37B10DA
:105A96007D1C7F681264E3E4FB7D6A7F681264E321
:095AA6007B027D377F680264E396
:1058A5007B017A0579109004977406F0E4A3F07DE6
:1058B5003B7F68124F56900510E0FEA3E0FDEDFF1B
:1058C5009003B6EEF0A3EFF0900512E0FEA3E0FD25
:1058D500EDFF9003B8EEF0A3EFF0900514E0FEA302
:0C58E500E0FDEDFF9003BAEEF0A3EFF041
:0158F1002294
:1058F2007B017A0579169004977406F0E4A3F07D93
:10590200437F68124F56900516E0FEA3E0FDEDFFBF
:105912009003BCEEF0A3EFF0900518E0FEA3E0FDCB
:10592200EDFF9003BEEEF0A3EFF090051AE0FEA3A8
:0C593200E0FDEDFF9003C0EEF0A3EFF0ED
:01593E002246
:0A6755002D002000256400256600D9
:05614F00F583E493FF5D
:106154007E08C2A2D2A1C2A5AD061EED6014EF3026
:10616400E704D2A38002C2A3D2A5C2A5EF25E0FF13
:0461740080E6D2A24D
:016178002204
:1062D9007E06C2A2D2A1C2A5AD061EED6014EF30A2
:1062E900E704D2A38002C2A3D2A5C2A5EF25E0FF8D
:0462F90080E6D2A2C7
:0162FD00227E
:0860750054F0C4540F4410FF65
:10607D007E08C2A2C2A1C2A5AD061EED6014EF300E
:10608D00E704D2A38002C2A3D2A5C2A5EF25E0FFEB
:04609D0080E6D2A225
:0160A10022DC
:104ED400900499EEF0A3EFF0A3EBF0A3EAF0A3E9BA
:014EE400F0DD
:104EE50090049F7406F090049BE0FBA3E0FAA3E016
:104EF500F990049FE0F582758300E4804E90049F4D
:104F0500E0604D14F0900499E0FAA3E0FB7C007D8D
:104F15000AFFAE0212141890049EEDF07C007D0A83
:104F2500AF03AE02121418900499EEF0A3EFF090BF
:104F3500049EE02430FF90049BE0FBA3E0FAA3E08D
:104F4500F990049FE0F582758300EF1213E480ADBC
:014F55002239
:10491000D2A2D2A5C2A07F327E001265BED2A07FF5
:10492000AE12607DE4FF12607D7F1012607D7F40DB
:1049300012607D7F8112607D7F7F12607D7FA1127A
:10494000607D7FC812607D7FA612607D7FA81260A7
:104950007D7F3F12607D7FD312607DE4FF12607D1A
:104960007FD512607D7F8012607D7FD912607D7F50
:10497000F112607D7FDA12607D7F1212607D7FDB35
:1049800012607D7F4012607D7F2012607D7F021269
:10499000607D7F8D12607D7F1412607D7FA4126028
:1049A0007D7FA612607D7FAF12607DE4FF125FD530
:0649B000E4FDFF0265E6D4
:1065E600AC07ED24B0FF12607DEC126075EC540F21
:0465F600FF02607DC3
:025FD500AC0717
:105FD700E4FBEBC39408748094805028EB24B0FF53
:105FE70012607D7F0112607D7F1012607DE4FAEA06
:105FF700C39480748094805008AF041261540A805F
:04600700EE0B80CE4E
:01600B002272
:10643300AA07A9051265E6E924B0FF12607DEA12F6
:0E6443006075EA540FFF12607DAF03026154D2
:10645100AB07AA051265E6EA24B0FF12607DEB12D4
:0E6461006075EB540FFF12607DE4FF02615482
:104C1A009004A0EFF0A3EDF0A3EBF0A3EAF0A3E970
:014C2A00F099
:104C2B00E4A3F0FCA3F09004A2E0FBA3E0FAA3E062
:104C3B00F99004A6E0F5827583001213A5605F243A
:104C4B00E09004A5F09004A0E0D3947E748094804F
:104C5B004006E4F0A3E004F09004A0E0FFA3E0FD25
:104C6B001265E6E4FCECC3940674809480502090AB
:104C7B0004A5E075F006A42486F582E5F03406F56C
:104C8B0083E5822CF582E4358312614F0C80D6903C
:0E4C9B0004A0E02406F09004A6E004F0808857
:014CA90022E8
:104563009004A7EFF0A3EDF0A3EBF0A3EAF0A3E927
:01457300F057
:10457400E4A3F0FCA3F09004A9E0FBA3E0FAA3E019
:10458400F99004ADE0F5827583001213A57003025F
:10459400462E24E09004ACF09004A7E0D394787401
:1045A4008094804006E4F0A3E004F09004A7E0FFC8
:1045B400A3E0FD1265E6E4FCECC3940874809480E7
:1045C40050209004ACE075F010A42CF582E435F092
:1045D400F583E58224AEF582E583340812614F0C3D
:1045E40080D69004A7E0FFA3E004FD1265E6E4FC96
:1045F400ECC394087480948050209004ACE075F06F
:1046040010A42CF582E435F0F583E58224B6F58216
:10461400E583340812614F0C80D69004A7E0240887
:0A462400F09004ADE004F002457AC6
:01462E002269
:0862680090043BEFF0A3EDF000
:10627000AE02AF037B017A04793D124ED490043B09
:0E628000E0FFA3E0FD7B017A04793E024C1A98
:0E51A9009003D9EFF0A3EDF0A3EAF0A3EBF032
:1051B700C3EA6480948050259003DBE0FEA3E0FF00
:1051C700C3E49FFFE49E9003DBF0A3EFF09003D9C5
:1051D700E0FFA3E0FD7BFF7A677955800E9003D946
:1051E700E0FFA3E0FD7BFF7A677957124C1A900323
:1051F700D9E02406F09003DBE0FEA3E0FF7B017A11
:105207000379DD124ED49003D9E0FFA3E0FD7B01C3
:075217007A0379DE024C1A54
:0E403A0090030FEEF0A3EFF0A3ECF0A3EDF077
:10404800900317E0FFC3740A9F7480F898500374B4
:104058000AF0900317E004F0900313E0FCA3E0FDDE
:10406800A3E0FEA3E0FFE4FBFAF9F8D3121632400E
:10407800319001D174FFF0A37467F0A37459F090E4
:104088000313E0FCA3E0FDA3E0FEA3E0FF9001D44E
:1040980012168C0B7A037918121D3790033AEFF039
:1040A80080389003187420F09001D174FFF0A37445
:1040B80067F0A37459F0900313E0FCA3E0FDA3E0BC
:1040C800FEA3E0FF9001D412168C7B017A037919C4
:1040D800121D3790033AEFF0801E900317E0FF900F
:1040E800033AE0FEC39F501574182EF582E434039A
:1040F800F5837420F090033AE004F080DD74182F03
:10410800F582E43403F583E4F090030FA3E0FFA302
:0C411800A3E0FD7B017A037918024C1A29
:0E33BC00900288EEF0A3EFF0A3ECF0A3EDF08A
:1033CA00900291E0FFC374069F7480F898500374CA
:1033DA0006F0900290E0FFC3740A9F7480F8985038
:1033EA0003740AF090028CE0FCA3E0FDA3E0FEA3C4
:1033FA00E0FFE4FBFAF9F812113C9001D160314088
:10340A002F74FFF0A37467F0A3745CF090028CE051
:10341A00FCA3E0FDA3E0FEA3E0FF9001D412168C0A
:10342A007B017A027993121D37900292EFF0803075
:10343A0074FFF0A37467F0A3745CF090028CE0FC54
:10344A00A3E0FDA3E0FEA3E0FF9001D412168C7B5B
:10345A00017A027994121D37900292EFF0E004F09B
:10346A00900292E024F9FD900290E0FEC3ED9E14D2
:10347A009002B5F0900291E0AE052E049002B6F0EB
:10348A009002B5E0FF3395E0FED3E49FEE6480F846
:10349A007480984022A3E0FF3395E0FE74932FF5E1
:1034AA008274023EF5837420F09002B6E004F09034
:1034BA0002B5E004F080C990028CE0FCA3E0FDA311
:1034CA00E0FEA3E0FFE4FBFAF9F812113C9002B522
:1034DA0060174015E0FF3395E0FE74932FF5827470
:1034EA00023EF583742DF08013E0FF3395E0FE74FD
:1034FA00932FF58274023EF5837420F09002B6E0B1
:10350A00FF3395E0FE74932FF58274023EF583E44F
:10351A00F0900288A3E0FFA3A3E0FD7B017A027981
:04352A0093024C1AA2
:10177B00900366ECF0A3EDF0A3EBF0A3EAF0A3E982
:09178B00F0900364EEF0A3EFF00E
:101794007E005407FF900372EEF0A3EFF0701790F1
:1017A4000364E0FEA3E07803CEC313CE13D8F9FF9D
:1017B400900370EE8018900364E0FEA3E07803CEFB
:1017C400C313CE13D8F92401FFE43E900370F0A3B1
:1017D400EFF0E490036CF0A3F0900370E0FEA3E05C
:1017E400FF90036CE0FCA3E0FDC39FEE6480F8EC83
:1017F4006480984003021D36E4FF1265E6E4A3F01A
:10180400A3F0900366E0FCA3E0FDC390036FE09DAA
:1018140090036EE09C4003021D25E4900374F09055
:101824000371E024FFFF900370E034FFFE90036C2B
:10183400E0FAA3E0FBC39FEE6480F8EA648098407A
:1018440015900372E0FEA3E0FF4E600AEF9401EEF0
:1018540064809480404D900374E0FFC007AE02EBB7
:101864007803C333CE33CED8F9FF1214069003683D
:10187400E0FBA3E0FAA3E02FF9EA3EFA90036EE05E
:10188400FEA3E029F9EA3EFA12138CFF90036BE001
:10189400FEEFD39E40047E0180027E00D0E04E9095
:1018A4000374F0900371E024FFFF900370E034FFB1
:1018B400FE90036CE0FCA3E0FDC39FEE6480F8ECB3
:1018C4006480984015900372E0FEA3E0FF4E600A26
:1018D400EF9402EE648094804063900374E0FFC050
:1018E40007AE04ED7803C333CE33CED8F9FF9003AB
:1018F40066E0FCA3E0FD121406A3E0FBA3E0FAA358
:10190400E02FF9EA3EFA90036EE0FEA3E029F9EA3B
:101914003EFA900366E0FEA3E029F9EA3EFA1213C8
:101924008CFF90036BE0FEEFD39E40047F018002A6
:101934007F00EF25E0FED0E04E900374F090037139
:10194400E024FFFF900370E034FFFE90036CE0FCA2
:10195400A3E0FDC39FEE6480F8EC6480984015908A
:101964000372E0FEA3E0FF4E600AEF9403EE64808E
:101974009480406C900374E0FFC007AE04ED7803DC
:10198400C333CE33CED8F9FF900366E0FCA3E0FD69
:10199400121406A3E0FBA3E0FAA3E02FF9EA3EFA4F
:1019A40090036EE0FEA3E029F9EA3EFA900367E0B3
:1019B40025E0FF900366E033FEE92FF9EA3EFA12D0
:1019C400138CFF90036BE0FEEFD39E40047F0180F5
:1019D400027F00EF25E025E0FED0E04E900374F096
:1019E400900371E024FFFF900370E034FFFE900346
:1019F4006CE0FCA3E0FDC39FEE6480F8EC64809887
:101A04004015900372E0FEA3E0FF4E600AEF9404D9
:101A1400EE64809480406A900374E0FFC007AE04D3
:101A2400ED7803C333CE33CED8F9FF900366E0FCE0
:101A3400A3E0FD121406A3E0FBA3E0FAA3E02FF950
:101A4400EA3EFA90036EE0FEA3E029F9EA3EFA903A
:101A54000366E0FEA3E0F5828E8374031216C912B6
:101A640013A5FF90036BE0FEEFD39E40047F01803B
:101A7400027F00EF33333354F8FED0E04E9003740A
:101A8400F0900371E024FFFF900370E034FFFE90B8
:101A9400036CE0FCA3E0FDC39FEE6480F8EC64807B
:101AA400984015900372E0FEA3E0FF4E600AEF94A5
:101AB40005EE64809480406D900374E0FFC007AE2F
:101AC40004ED7803C333CE33CED8F9FF900366E038
:101AD400FCA3E0FD121406A3E0FBA3E0FAA3E02FAD
:101AE400F9EA3EFA90036EE0FEA3E029F9EA3EFA31
:101AF400900366E0FEA3E07802C333CE33CED8F978
:101B040029F9EA3EFA12138CFF90036BE0FEEFD33F
:101B14009E40047F0180027F00EFC454F0FED0E0B9
:101B24004E900374F0900371E024FFFF900370E083
:101B340034FFFE90036CE0FCA3E0FDC39FEE6480E1
:101B4400F8EC6480984015900372E0FEA3E0FF4E29
:101B5400600AEF9406EE648094804069900374E018
:101B6400FFC007AE04ED7803C333CE33CED8F9FFFC
:101B7400900366E0FCA3E0FD121406A3E0FBA3E0DF
:101B8400FAA3E02FF9EA3EFA90036EE0FEA3E029FF
:101B9400F9EA3EFA900366E0FEA3E0F5828E8374D0
:101BA400051216C91213A5FF90036BE0FEEFD39E36
:101BB40040047F0180027F00EFC43354E0FED0E094
:101BC4004E900374F0900371E024FFFF900370E0E3
:101BD40034FFFE90036CE0FCA3E0FDC39FEE648041
:101BE400F8EC6480984015900372E0FEA3E0FF4E89
:101BF400600AEF9407EE64809480406A900374E076
:101C0400FFC007AE04ED7803C333CE33CED8F9FF5B
:101C1400900366E0FCA3E0FD121406A3E0FBA3E03E
:101C2400FAA3E02FF9EA3EFA90036EE0FEA3E0295E
:101C3400F9EA3EFA900366E0FEA3E0F5828E83742F
:101C4400061216C91213A5FF90036BE0FEEFD39E94
:101C540040047F0180027F00EFC4333354C0FED0C0
:101C6400E04E900374F0900371E024FFFF90037042
:101C7400E034FFFE90036CE0FCA3E0FDC39FEE6440
:101C840080F8EC6480984015900372E0FEA3E0FFB6
:101C94004E600AEF9408EE64809480406B90037465
:101CA400E0FFC007AE04ED7803C333CE33CED8F9DA
:101CB400FF900366E0FCA3E0FD121406A3E0FBA37F
:101CC400E0FAA3E02FF9EA3EFA90036EE0FEA3E007
:101CD40029F9EA3EFA900366E0FEA3E0F5828E83DA
:101CE40074071216C91213A5FF90036BE0FEEFD31D
:101CF4009E40047F0180027F00EFC433333354805D
:101D0400FED0E04E900374F0900374E0FF1261542F
:101D140090036FE004F0700690036EE004F0021884
:101D24000690036DE004F0700690036CE004F0028A
:021D340017DDB9
:011D3600228A
:0B449400900385EFF0A3EDF0A3EBF028
:10449F00E490038CF0A3F090038BE0FFC390038DA7
:1044AF00E09F7480F890038CE0648098400302458D
:1044BF0062E490038EF0A3F0900387E0FF131313D1
:1044CF00541FFD90038EE0FAA3E0FBC39D7480F8A8
:1044DF00EA648098506990038CA3E08FF0A4FF905A
:1044EF000385E02FFFA3E02BFD1265E6E490039018
:1044FF00F0A3F0900388E0FBA3E0FAA3E0F9121316
:10450F008CFF126154900389E475F0011214A3908B
:10451F000391E004F07006900390E004F0C3900361
:10452F0091E09410900390E06480948040C59003D4
:10453F008FE004F0708290038EE004F00244C79085
:10454F00038DE004F060030244A690038CE004F0B6
:03455F000244A66D
:014562002236
:10663500EF1FAA0670011E4A60087D091DED60F076
:0266450080FAD9
:016647002230
:0B60A200C2CCEF4480FF1260ADAF05E0
:1060AD00E4FEEEC39408748094805015EF3392FD96
:1060BD00EF25E0FFC2FFD2FFA2FEE4334FFF0E80BB
:0160CD00E1F1
:0160CE0022AF
:066783001260A2D2CC223C
:1065A900C2CCEF4440FF1260ADE4FF1260ADEF12C0
:0565B90013D2D2CC2238
:106412001260A2D2CCC2CCE4FF1260ADAC07E4FFA2
:106422001260ADD2CCAF04ED6F60037F01227F001A
:016432002247
:105E7100900545EBF0A3EAF0A3E9F0C2CCEF444072
:105E8100FF1260ADE4FF1260ADD2CC7F017E001243
:105E91006635C2CCE4FF1260AD900545E0FBA3E09E
:105EA100FAA3E0F9EF1213D2E4FF1260ADD2CC22D3
:10621A00AB07AA06C3E49BFB74109AFAEBC4F854C2
:10622A000FC868FBEAC454F048FAAD03E4FF1264ED
:08623A0012EAFD7F010264126B
:1062FE00C2CCE4FF1260ADAD07ED7D00FCE4FF12F1
:10630E0060ADD2CCAE04EEC4F854F0C868FEEFC453
:04631E00540F48FFD1
:016322002258
:1065FA007B017A0579697F06125E71900569E0640C
:03660A001C70ED14
:01660D00226A
:1066BF001265FAE4FD7F09126412E4FFFE02621A0A
:0E668E00EBF0A3EAF0A3E9F0C2CCEF4440FF2A
:03669C00020006F3
:1065340090056AEDF0C2CCEF4480FF12669C900592
:096544006AE0FF12669CD2CC2231
:1064C60090054812668EE4FF1260AD900548E0FB29
:0D64D600A3E0FAA3E0F9EF1213D2D2CC221A
:055EEE00900556EDF0E7
:105EF300C2CCEF4480FF12669C900556E0FF126609
:105F03009CD2CCC2CCE4FF12669C900557EFF0E420
:105F1300FF12669CD2CC900557E0FF900556E06FC8
:075F230060037F01227F00F3
:015F2A002254
:1060FA0090054B12668EE4FF12669CD2CCC2CCE4A9
:10610A00FF12669C90054BE0FBA3E0FAA3E0F9EFCF
:0B611A001213D2E4FF12669CD2CC22CC
:105F6600900558EEF0A3EFF0C3E49FF074109E90F6
:105F76000558F0A3E0C4F8540FC868FF900558E030
:105F8600C454F048F0A3EFF0FDE4FF125EEE900576
:085F960058E0FD7F01025EEE00
:105DF000E490055AF0A3F0C2CCFF12669C90055ABD
:105E0000E4F0A3EFF0E0F8E4F0E890055AF0E4FFE6
:105E100012669C90055AE0F0A3E04FF0D2CC9005BA
:105E20005AE0C4F854F0C868FEA3E0C4540F48FF19
:015E3000224F
:10660E007B017A05796B7F061260FA90056BE06468
:03661E001C70ED00
:016621002256
:10628E009004807422F0E4A3F0A3F0A3F07B217DB0
:10629E00207F02123C5212660EE4FD7F09125EEE62
:0662AE00E4FFFE025F6642
:10654D009004481216980001C20090044C7404F097
:09655D007B117D107F03022A204E
:104864009004AEEBF0A3EAF0A3E9F0A38062E47F46
:104874001EFEFDFC9004B1E0F8A3E0F9A3E0FAA366
:10488400E0FBD3121648404D308402804B9004AEB6
:10489400E0FBA3E0FAA3E0F99004C6E4F0A3741EDD
:1048A400F07F031261A29004AFE475F01E1214A30A
:1048B4009004B1E0FCA3E0FDA3E0FEA3E0C3941EDA
:1048C400FFEE9400FEED9400FDEC9400FC9004B126
:1048D40012168C809930840F9004B1E0FCA3E0FDA3
:1048E400A3E0FEA3E0FF229004AEE0FBA3E0FAA362
:1048F400E0F9A3A3A3E0FFA3E09004C6CFF0A3EFE5
:0C490400F07F031261A2E4FFFEFDFC2224
:0E4B89009004B5EBF0A3EAF0A3E9F0A3EDF081
:104B970074FFA3F0A3F0E4A3F09004B8E0FF90043F
:104BA700BBE0FEC39F50639004B5E0FBA3E0FAA30C
:104BB700E0F98E827583001213A5FF9004B9E0F027
:104BC700A3E06FF0E4FDEDC3940874809480503245
:104BD7009004B9E0FEA3E0FF30E019EEC313FEEF47
:104BE70013FFEE64A0FEEF6401FF9004B9EEF0A39B
:104BF700EFF0800B9004B9E0C313F0A3E013F00DBE
:104C070080C49004BBE004F0808F9004B9E0FEA359
:024C1700E0FFBC
:014C19002278
:1049B6009003E6ECF0A3EDF0A3EAF0A3EBF090038E
:0649C600E4EEF0A3EFF0A7
:1049CC00E4FC9003ECE0FBA3E0FAA3E0F9EF121394
:1049DC00D29003E4E0FEEEFF9003ECE0FBA3E0FAE0
:1049EC00A3E0F9900001EF1213E49003E6A3E0902A
:1049FC0000021213E49003E6E0FEEE9000031213A3
:104A0C00E49003E8A3E09000041213E49003E8E0C0
:104A1C00FEEE9000051213E49003EAA3E09000066A
:104A2C001213E49003EAE0FEEE9000071213E47D0B
:104A3C0008124B899003ECE0FBA3E0FAA3E0F99099
:0D4A4C000008EF1213E4EE9000090213E4DD
:102BF300900200E0FBA3E475F0041214B9A9F0FA03
:102C030012166C90022512168C900225E0FCA3E0AC
:102C1300FDA3E0FEA3E0FF7B017A027904E49003C5
:062C230058F0A37410F04C
:102C290090035112168C900355EBF0A3EAF0A3E937
:012C3900F0AA
:102C3A00E4900362F0A3F0900358E07003022CF8CA
:102C4A00900351E0FCA3E0FDA3E0FEA3E0FF9003A4
:102C5A005A12168C90035AE0FCA3E0FDA3E0FEA3EF
:102C6A00E0FFEC33501090035AA3A3A3E0121624FA
:102C7A0090035A12168C900359E0FBE4FAF9F8A370
:102C8A00E0FCA3E0FDA3E0FEA3E0FF125CE6EB2478
:102C9A0030FF900355E0FBA3E0FAA3E0F9EF12132B
:102CAA00D290035AE0FCA3E0FDA3E0FEA3E0FFC03C
:102CBA0007900359E0FBE4FAF9F8D007125CE690B2
:102CCA00035A12168C900363E004F090035AE0FC56
:102CDA00A3E0FDA3E0FEA3E0FFEC4D4E4F7003021C
:102CEA002DA3900356E475F0011214A38088900373
:102CFA0051E0FCA3E0FDA3E0FEA3E0FF90035E1217
:102D0A00168C900359E0FBE4FAF9F890035EE0FCB4
:102D1A00A3E0FDA3E0FEA3E0FF121592AF03900328
:102D2A0062EFF0D3740A9F7480F8985006E0243753
:102D3A00F08007900362E02430F0900362E0FF9095
:102D4A000355E0FBA3E0FAA3E0F9EF1213D29003D4
:102D5A005EE0FCA3E0FDA3E0FEA3E0FFC007900352
:102D6A0059E0FBE4FAF9F8D00712159290035E12C3
:102D7A00168C900363E004F090035EE0FCA3E0FD90
:102D8A00A3E0FEA3E0FFEC4D4E4F600D900356E426
:0E2D9A0075F0011214A3022D0C900363E0FFEC
:012DA8002208
:103D6500900229EFF07B017A027904E0FFE4FCFD83
:013D7500FE4F
:0F3D76009003C2EBF0A3EAF0A3E9F0A312168CBE
:103D85009003C912169800000000E47B02FAF9F8C6
:103D95009003C5E0FCA3E0FDA3E0FEA3E0FF121540
:103DA500929003C9E0F8A3E0F9A3E0FAA3E0FBC30E
:103DB5001216484003023E5D9003C5A3A3E0FEA38F
:103DC500E024FFFBEE34FFFAA3A3A3E0FEA3E0FF8C
:103DD500C3EB9FFDEA9EFC9003C2E0FBA3E0FAA3C0
:103DE500E0F98D828C831213A59003CDF08F828E1E
:103DF500831213A5FFC0079003C5A3A3E0FEA3E0AC
:103E050024FFFBEE34FFFAA3A3A3E0FEA3E0FDAC81
:103E150006C3EB9DFFEA9CFE9003C2E0FBA3E0FA1C
:103E25008F828E83D0E01213E49003CDE0FFEF8DF7
:103E3500828C831213E49003C9E0FCA3E0FDA3E0A8
:103E4500FEA3E02401FFE43EFEE43DFDE43CFC90DE
:083E550003C912168C023D8F17
:013E5D002242
:0B1D37009001CEEBF0A3EAF0A3E9F06E
:101D42009001FC121698000000009002007401F04D
:101D5200A37401F0A374D4F09001D1E0FBA3E0FAE4
:0B1D6200A3E0F912138C70030222C1F1
:101D6D00900203F06425600302226D9001D1A3E47B
:101D7D0075F0011214A3A9F0FA12138C1216FA229F
:101D8D0039251E3B462113581DB4631DD0641E3BDF
:101D9D00661DD06920986F21E07021677320127540
:071DAD00211378000022B4AD
:101DB400900200E0FBA3E475F0041214B9A9F0FA50
:091DC40012166C900204EFF0E02D
:031DCD0002227B74
:101DD000900200E0FBA3E475F0041214B9A9F0FA34
:101DE00012166C90022512168C900225E0FCA3E0DE
:101DF000FDA3E0FEA3E0FF7B017A02790490035883
:101E00007401F0A3740AF0122C29900229EFF090CB
:101E10000225E0FCA3A3A3EC335014A3E02404F5B3
:101E200082E43402F583742DF0900229E004F07B03
:081E3000017A027904900229F5
:031E38000220562F
:101E3B00900200E0FBA3E475F0041214B9A9F0FAC8
:101E4B0012166C90022512168C900225E0FCA3E072
:101E5B00FDA3E0FEA3E0FF1211F37B017A027904EC
:101E6B009003587401F0A3740AF0122C29900229E4
:101E7B00EFF0E4FFFEFDFC900225E0F8A3E0F9A3F0
:101E8B00E0FAA3E0FB12113C5016900229E0240467
:101E9B00F582E43402F583742DF0900229E004F00E
:101EAB007B017A027904900229123D70900229E09D
:101EBB00FF7E009001CEE0FBA3E0FAA3E0F8AC02BA
:101ECB00AD037B017A027904121344900229E0FFDF
:101EDB00FD9001CFE48DF01214A39001FCE0F8A368
:101EEB00E0F9A3E0FAA3E0FBE4FCFDFEEB2FFFEE31
:101EFB003AFEED39FDEC38FC9001FC12168C900289
:101F0B0025E0FCA3E0FDA3E0FEA3E0FF1211F3EC40
:101F1B001211B5A804A905AA06AB07900225E0FC8F
:101F2B00A3E0FDA3E0FEA3E0FF120EA17B007A2449
:101F3B0079747849120F9690022512168C9002250F
:101F4B00E0FCA3E0FDA3E0FEA3E0FFEC4D4E4F60F1
:101F5B0024900225A3A3A3E01211F37B017A02794B
:101F6B00049003587401F0A3740AF0122C29900208
:101F7B0029EFF080209002097430F0900208F09065
:101F8B000207F0900206F0900205F0900204F09028
:101F9B0002297406F0900229E0FFFDD374069D74AC
:101FAB0080F898401574042FF582E43402F583749D
:101FBB0030F0900229E004F080DB900229E0240449
:101FCB00F582E43402F583742EF0900229E00412BA
:101FDB003D69900229E0FF7E009001CEE0FBA3E07B
:101FEB00FAA3E0F8AC02AD037B017A027904121379
:101FFB00449001FCE0F8A3E0F9A3E0FAA3E0FB9026
:07200B000229E0FF0221554C
:10201200900200E0FBA3E475F0041214B9A9F0FAEF
:1020220012166C90022512168C900225E0FCA3E099
:10203200FDA3E0FEA3E0FF7B017A027904E49003B2
:1020420058F0A3740AF0122C29900229EFF07B01B8
:102052007A027904123D70900229E0FF7E0090011D
:10206200CEE0FBA3E0FAA3E0F8AC02AD037B017A79
:10207200027904121344900229E0FFFD9001CFE49B
:102082008DF01214A39001FCE0F8A3E0F9A3E0FAAA
:03209200A3E0FBCD
:03209500022155D0
:10209800900200E0FBA3E475F0041214B9A9F0FA69
:1020A80012166C90022512168C900225E0FCA3E013
:1020B800FDA3E0FEA3E0FF7B017A027904E490032C
:1020C80058F0A37408F0122C29123D65900229E0FB
:1020D800FF7E009001CEE0FBA3E0FAA3E0F8AC029B
:1020E800AD037B017A027904121344900229E0FFC0
:1020F800FD9001CFE48DF01214A39001FCE0F8A349
:08210800E0F9A3E0FAA3E0FBFB
:0321100002215554
:10211300122BF3123D65900229E0FF7E009001CE61
:10212300E0FBA3E0FAA3E0F8AC02AD037B017A0283
:102133007904121344900229E0FFFD9001CFE48D4E
:10214300F01214A39001FCE0F8A3E0F9A3E0FAA3D2
:10215300E0FBE4FCFDFEEB2FFFEE3AFEED39FDEC78
:012163003843
:032164000222ADA7
:10216700900200E0FBA3E475F0031214B9A9F0FA9A
:102177001216DA900204EBF0A3EAF0A3E9F090025A
:1021870004E0FBA3E0FAA3E0F912138C7003022228
:10219700B412138CFF9001CEE0FBA3E0FAA3E0F9A1
:1021A700EF1213D29001CFE475F0011214A390013E
:1021B700FCE0FCA3E0FDA3E0FEA3E02401FFE43E76
:1021C700FEE43DFDE43CFC9001FC12168C900205F8
:0921D700E475F0011214A380A5C7
:1021E000122BF3900229EFF07B017A0279047F0829
:1021F0007E007D007C00123D769001CEE0FBA3E0E6
:10220000FAA3E0F8AC02AD037B017A0279047E0008
:102210007F081213449001CFE475F0081214A390C4
:1022200001FCE0FCA3E0FDA3E0FEA3E02408FFE442
:072230003EFEE43DFDE43C2D
:1022370080749001CEE0FBA3E0FAA3E0F9742512C5
:1022470013D29001CFE475F0011214A39001FCE0C2
:10225700FCA3E0FDA3E0FEA3E02401FFE43EFEE4CF
:102267003DFDE43C80409001D1E0FBA3E0FAA3E010
:10227700F912138CFF9001CEE0FBA3E0FAA3E0F97B
:10228700EF1213D29001CFE475F0011214A390015D
:10229700FCE0FCA3E0FDA3E0FEA3E02401FFE43E95
:1022A700FEE43DFDE43CFC9001FC12168C9001D24B
:0722B700E475F0011214A30D
:1022BE00021D5A900200E4F0A3F0A3F09001FCE09E
:0A22CE00FCA3E0FDA3E0FEA3E0FF87
:0122D80022E3
:030023000257BCC5
:0D57BC00C0E0C083C082C0D075D000C0071F
:1057C900E59830E1085398FD9001CAE4F0E5983076
:1057D900E0255398FEAF99EF647F701690056CE051
:1057E900FF04F0D3EF941474809480400A75C76065
:0757F900800590056CE4F04F
:0B580000D007D0D0D082D083D0E0329F
:0300430002638BCA
:10638B00C0E0C083C082E59A30E108539AFD9001CA
:10639B00CBE4F0E59A30E003539AFED082D083D061
:0263AB00E032DE
:03008B000263AD60
:1063AD00C0E0C083C082E5AC30E10853ACFD900184
:1063BD00CCE4F0E5AC30E00353ACFED082D083D01A
:0263CD00E032BC
:030093000263CF36
:1063CF00C0E0C083C082E58430E1085384FD9001B2
:1063DF00CDE4F0E58430E0035384FED082D083D047
:0263EF00E0329A
:03003B00025371FC
:10537100C0E0C0F0C083C082C0D075D000C000C002
:1053810001C002C003C004C005C006C00730D81167
:1053910075D8FEE4FF124A59125BCF9000007401E8
:1053A100F030D90875D8FD7F01124A5930DA0875F5
:1053B100D8FB7F02124A5930DB0375D8F7D007D0EA
:1053C10006D005D004D003D002D001D000D0D0D077
:0853D10082D083D0F0D0E0325D
:03000300020051A7
:01005100327C
:0300130002005296
:01005200327B
:030053000200594F
:010059003274
:03005B0002005A46
:01005A003273
:03008300020089EF
:010089003244
:0B00460012005612543F12008680FE8C
:100E9E0002125FE86480F8E933E83360110460F011
:100EAE00ED33EC337009E8FCE9FDEAFEEBFF2204BA
:100EBE0060DED3EB9FEA9EE99DE8C2E78CF0C2F7B5
:100ECE0095F0400CE8CCF8E9CDF9EACEFAEBCFFB81
:100EDE0012122A85D0F05804700320D5B3E804709E
:100EEE00075002B2D502126992D5EC0460F7E4CC39
:100EFE00C0E0C398F8603B94186008400DD0E0FB4A
:100F0E00021241E4FBFAC9FC8028E830E406E4C989
:100F1E00FBE4CAFCE830E305E4C9CACBFCE854079D
:100F2E006010F8C3E913F9EA13FAEB13FBEC13FCA8
:100F3E00D8F130F52FC3E49CFCEF9BFFEE9AFEED4B
:100F4E0099FDD0E0FBEF4E4D4C701222DB030212E6
:100F5E0066EC2CFCEF33FFEE33FEED33FDED30E7A8
:100F6E00EB021241EF2BFFEE3AFEED39FDD0E0FB26
:100F7E0050130BBB0003021269ED13FDEE13FEEFCF
:080F8E0013FFEC13FC021241F9
:100F9600EC4D6011E8497017ED33EC3304600DE455
:100FA600FCFFFEFD22E933E8330470F802125F12FB
:100FB600122A58046009E4CC2481500628500902FC
:100FC6001269284003021266C0E0EB4A7044B980F9
:100FD60006D0E0FB021255EF4E701CBD8008EBFFF9
:100FE600EAFEE9FD80EBE98DF0A4FEE5F002107F54
:100FF600E9CDF9EAFEEBFFEF89F0A4FCE5F0CE8936
:10100600F0A42EFFE435F0CD89F0A42DFEE435F0F2
:101016008067EF4E7005BD80D780C3EF8BF0A4AC20
:10102600F0EE8BF0A42CFCE435F0F8EF8AF0A42C5B
:10103600E5F038FCE433CB8DF0A42CFCE5F03BF86E
:10104600EE8AF0A42CFCE5F038F8E433CF89F0A45E
:101056002CFCE5F038CF3400CE89F0A42FFFE5F064
:101066003EFEE433C98DF0A42EFEE5F039CD8AF0BC
:10107600A42FFFE5F03EFEE43DFD33D0E0FB500734
:101086000BBB000F021269EC2CFCEF33FFEE33FEB4
:06109600ED33FD021241E2
:10109C00021269EC5D046005E85904700302125FEA
:1010AC0012122A580460F6EC4860F2EC7004FDFE53
:1010BC00FF22C860DB2481C85009C3986002500627
:1010CC000212669850CAF582E9294B4A7005AB8228
:1010DC0002125575F0007C1A7880C3EF9BEE9AEDE6
:1010EC0099400DC3EF9BFFEE9AFEED99FDE842F09F
:1010FC00DC23ACF0D0E0FFD0E0FED0E0FDAB8220F2
:10110C00E7101BEB60BAEC2CFCEF33FFEE33FEED7B
:10111C0033FD021241E803F830E705C0F075F0002A
:10112C00EF2FFFEE33FEED33FD40B830E7C280AA5F
:10113C0074F8CC6480CCC86480C8F58204604FC35A
:10114C00EB9FF5F0EA9E42F0E99D42F0E89C45F0F9
:10115C00603C501DE5825FFFE582D313CB5BCBF483
:10116C002B5582FB50280ABA002409B900200880AC
:10117C001DE5825BFBE582D313CF5FCFF4C3132F46
:10118C005582FF50090EBE00050DBD00010CC3EBCE
:10119C009FF5F0EA9E42F0E99D42F0E89C45F06034
:0911AC0007CC4820E701B3EC2256
:1011B50075F020800E75F010800575F0087D007EB5
:1011C500007F003392D530D503121624EC3340103E
:1011D500EF33FFEE33FEED33FDEC33FCD5F0ED22BE
:0E11E500E5F0247EA2D513CC92E7CDCEFF22FA
:1011F300EDD2E7CD33EC3392D524814006E4FFFEF4
:10120300FDFC22FCE4CFCECDCC24E0501174FF8052
:10121300EDC3CC13CCCD13CDCE13CECF13CF0470EF
:07122300F030D5DE021624B5
:10122A00E9D2E7C933E833F892D5EDD2E7CD33EC0A
:07123A0033FC5002B2D52283
:10124100EC30E7100FBF000C0EBE00080DBD00040E
:101251000BEB6014A2D5EB13FCED92E7FD2274FFBA
:10126100FCFDFEFF22E480F8A2D574FF13FC7D8013
:03127100E480EF27
:03000000024D3777
:0C4D3700787FE4F6D8FD758107024D7E00
:10127400E709F608DFFA8046E709F208DFFA803E5C
:1012840088828C83E709F0A3DFFA8032E309F60849
:10129400DFFA8078E309F208DFFA807088828C83B1
:1012A400E309F0A3DFFA806489828A83E0A3F60865
:1012B400DFFA805889828A83E0A3F208DFFA804C3F
:1012C40080D280FA80C680D4806980F28033801016
:1012D40080A680EA809A80A880DA80E280CA80337F
:1012E40089828A83ECFAE493A3C8C582C8CCC583F7
:1012F400CCF0A3C8C582C8CCC583CCDFE9DEE780C7
:101304000D89828A83E493A3F608DFF9ECFAA9F045
:10131400EDFB2289828A83ECFAE0A3C8C582C8CC9B
:10132400C583CCF0A3C8C582C8CCC583CCDFEADEB4
:10133400E880DB89828A83E493A3F208DFF980CC16
:1013440088F0EF60010E4E60C388F0ED2402B4040F
:101354000050B9F582EB2402B4040050AF232345B6
:0613640082239012C47305
:10136A00C2D530F707B2D563F0FF05F030E70CB20B
:10137A00D5F4048463F0FF05F080018430D502F4CB
:02138A0004223B
:10138C00BB010689828A83E0225002E722BBFE025F
:09139C00E32289828A83E4932292
:1013A500BB010CE58229F582E5833AF583E02250FD
:1013B50006E92582F8E622BBFE06E92582F8E22247
:0D13C500E58229F582E5833AF583E4932261
:1013D200BB010689828A83F0225002F722BBFE01FA
:0213E200F322F4
:1013E400F8BB010DE58229F582E5833AF583E8F03F
:1013F400225006E92582C8F622BBFE05E92582C8EB
:02140400F222D2
:10140600EF8DF0A4A8F0CF8CF0A428CE8DF0A42EFA
:02141600FE22B4
:10141800BC000BBE0029EF8DF084FFADF022E4CCB8
:10142800F875F008EF2FFFEE33FEEC33FCEE9DEC81
:10143800984005FCEE9DFE0FD5F0E9E4CEFD22EDC7
:10144800F8F5F0EE8420D21CFEADF075F008EF2F11
:10145800FFED33FD4007985006D5F0F222C398FD02
:051468000FD5F0EA229F
:10146D00C2D5EC30E709B2D5E4C39DFDE49CFCEE9A
:10147D0030E715B2D5E4C39FFFE49EFE121418C3E6
:10148D00E49DFDE49CFC800312141830D507C3E4E1
:06149D009FFFE49EFE2209
:1014A300C5F0F8A3E028F0C5F0F8E58215827002D4
:0614B3001583E038F02271
:1014B900A3F8E0C5F025F0F0E582158270021583E6
:0614C900E0C838F0E82243
:1014CF00BB0110E58229F582E5833AF583E0F5F05B
:1014DF00A3E0225009E92582F886F008E622BBFE38
:1014EF000AE92582F8E2F5F008E222E5832AF5837E
:0814FF00E993F5F0A3E9932243
:10150700E88FF0A4CC8BF0A42CFCE98EF0A42CFC83
:101517008AF0EDA42CFCEA8EF0A4CDA8F08BF0A401
:101527002DCC3825F0FDE98FF0A42CCD35F0FCEB60
:101537008EF0A4FEA9F0EB8FF0A4CFC5F02ECD3925
:0F154700FEE43CFCEAA42DCE35F0FDE43CFC2292
:1015560075F008758200EF2FFFEE33FECD33CDCC4C
:1015660033CCC58233C5829BED9AEC99E5829840CF
:101576000CF582EE9BFEED9AFDEC99FC0FD5F0D6AC
:10158600E4CEFBE4CDFAE4CCF9A88222B800C1B9D6
:101596000059BA002DEC8BF084CFCECDFCE5F0CB14
:1015A600F97818EF2FFFEE33FEED33FDEC33FCEB4D
:1015B60033FB10D703994004EB99FB0FD8E5E4F908
:1015C600FA227818EF2FFFEE33FEED33FDEC33FCF5
:1015D600C933C910D7059BE99A4007EC9BFCE99AE9
:1015E600F90FD8E0E4C9FAE4CCFB2275F010EF2F2E
:1015F600FFEE33FEED33FDCC33CCC833C810D7072E
:101606009BEC9AE899400AED9BFDEC9AFCE899F868
:0E1616000FD5F0DAE4CDFBE4CCFAE4C8F922FB
:105CE600C2D5E830E70FB2D5E4C39BFBE49AFAE4E9
:105CF60099F9E498F8EC30E717B2D5125D1C121545
:105D060092E4C39BFBE49AFAE499F9E498F88003D9
:105D160012159230D50DE4C39FFFE49EFEE49DFD6F
:045D2600E49CFC22DB
:0E162400C3E49FFFE49EFEE49DFDE49CFC22D7
:10163200EB9FF5F0EA9E42F0E99D42F0EC6480C82F
:0616420064809845F022CF
:10164800EB9FF5F0EA9E42F0E99D42F0E89C45F0F8
:01165800226F
:10165900E8600FECC313FCED13FDEE13FEEF13FF6F
:03166900D8F12293
:10166C00BB010789828A8302172C5005E9F80217FF
:10167C0020BBFE05E9F802173889828A83021744D9
:0C168C00ECF0A3EDF0A3EEF0A3EFF022D1
:10169800A8828583F0D083D0821216AF1216AF12BB
:1016A80016AF1216AFE473E493A3C583C5F0C583E0
:1016B800C8C582C8F0A3C583C5F0C583C8C582C89C
:0116C80022FF
:1016C900F5F0C582A4C582C5F0C583A42583F58339
:0116D90022EE
:1016DA00BB010789828A8302175D5005E9F8021760
:1016EA0054BBFE05E9F802176689828A8302176FDE
:1016FA00D083D082F8E4937012740193700DA3A37F
:10170A0093F8740193F5828883E473740293686092
:06171A00EFA3A3A380DF92
:104D4300020046E493A3F8E493A34003F68001F240
:104D530008DFF48029E493A3F85407240CC8C33371
:104D6300C4540F4420C8834004F456800146F6DF40
:104D7300E4800B0102040810204080906323E47E4A
:104D8300019360BCA3FF543F30E509541FFEE49335
:104D9300A360010ECF54C025E060A840B8E493A3FC
:104DA300FAE493A3F8E493A3C8C582C8CAC583CA27
:104DB300F0A3C8C582C8CAC583CADFE9DEE780BEDF
:016345000057
:0C172000E6FC08E6FD08E6FE08E6FF22F5
:0C172C00E0FCA3E0FDA3E0FEA3E0FF2230
:0C173800E2FC08E2FD08E2FE08E2FF22ED
:10174400E493FC740193FD740293FE740393FF22EB
:09175400E6FB08E6FA08E6F922BA
:09175D00E0FBA3E0FAA3E0F9228D
:09176600E2FB08E2FA08E2F922B4
:0C176F00E493FB740193FA740293F922D6
:00000001FF
